:020000040800F2
:100000000080012099210008E521000895090008D9
:100010009D090008A5090008AD09000800000000BE
:100020000000000000000000000000007D9C0008AF
:10003000E521000800000000399C0008799B0008B9
:10004000E5210008E5210008E5210008E521000878
:10005000E5210008E5210008E5210008E521000868
:10006000E5210008E5210008E5210008E521000858
:10007000E5210008E5210008E5210008E521000848
:10008000E5210008E5210008E52100080000000046
:10009000000000000000000000000000E521000852
:1000A000E5210008E5210008E5210008E521000818
:1000B000E5210008E5210008E5210008E521000808
:1000C000E5210008E5210008E5210008E5210008F8
:1000D000E5210008E5210008E521000800000000F6
:1000E000E5210008E5210008E521000800000000E6
:1000F000000000000000000000000000E5210008F2
:1001000000000000E5210008E5210008E5210008C5
:1001100000000000000000000000000000000000DF
:10012000E5210008E5210008E5210008E521000897
:10013000E5210008000000000000000000000000B1
:10014000000000000000000000000000E5210008A1
:10015000E5210008E5210008E5210008E521000867
:10016000E5210008E5210008000000000000000073
:10017000000000000000000000000000000000007F
:1001800000000000E5210008000000000000000061
:10019000E52100080348044B834202D0034B03B11E
:1001A00018477047A8030020A803002000000000A3
:1001B0000548064B1B1AD90F01EBA301491002D0C9
:1001C000034B03B118477047A8030020A803002081
:1001D0000000000010B5064C237843B9FFF7DAFFA2
:1001E000044B13B10448AFF300800123237010BD0A
:1001F000A80300200000000010CE000808B5054B41
:100200001BB105490548AFF30080BDE80840FFF782
:10021000CFBF00BF00000000AC03002010CE0008DC
:10022000A3F5803A704700BF174B002B08BF134B54
:100230009D46FFF7F5FF00218B460F461348144AF1
:10024000121A0BF000FE0E4B002B00D098470D4BFE
:10025000002B00D098470020002104000D000D481D
:10026000002802D00C48AFF300800BF073FE200092
:10027000290003F071FC0AF00FFE00BF0000080027
:1002800000000000D517000800800120A80300200E
:10029000F018002000000000000000000346006885
:1002A00018B9186808B9181D18607047024B1B6808
:1002B00003B11847704700BFC4030020C36810B5DE
:1002C00004460BB19B689847204610BD007B7047E1
:1002D00038B50B4B03600023C0E9013104460D46DD
:1002E00002730848FFF7DAFF45B1074B1A686260EE
:1002F0001C600448FFF7D2FF204638BD6560F8E770
:100300003CC80008CC030020C803002010B5124BE5
:10031000036004461148FFF7C1FFA3682BB11049E1
:1003200062680B68A34210D10A600E4B0B481A6832
:10033000A24204BF00221A60FFF7B0FF237B13B96B
:10034000201F01F047F9204610BD19465B68A34203
:10035000FBD14A60E9E700BF3CC80008CC0300209D
:10036000C8030020D403002010B50446FFF7CEFFD9
:100370002046102101F02AF9204610BDF8B50646A6
:1003800014480D46FFF78AFF134B1C6894B1A76809
:1003900077B138460BF072FEA84209D12A463146A1
:1003A00038460BF026FD18B90A48FFF777FF0FE033
:1003B0006468EBE7072DF7D108482A4631460BF071
:1003C00018FD0028F0D10348FFF768FF044B1C68B4
:1003D0002046F8BDCC030020C8030020C8C5000893
:1003E000D4030020002070470020704703680122DA
:1003F0001B6900211847036800221B691146184732
:100400006FF01500704703681B69184703689B6904
:10041000184703689B6A184700290CBF6FF0180043
:1004200000207047012070476FF0150070476FF093
:1004300015007047112070477047036870B51B693D
:100440000122002104469847051E0DDB2368022285
:100450001B690021204698472368064629461B69E8
:100460000022204698473546284670BD70B50D4697
:100470000026C0E900660C49044628460BF0EBFC58
:1004800028442060314623681A782F2A06D1013388
:100490002360FFF773FF6060204670BD002AF8D02C
:1004A000013301312360EEE7D0C5000800687047D2
:1004B000406808B520B1FFF709FF431E5842584174
:1004C00008BD10B50446FFF7F3FF10B1606800B136
:1004D000043810BD406808B520B1FFF7F7FEB0FA48
:1004E00080F0400908BD10B50446FFF7F3FF10B1D6
:1004F000606800B1043810BD4068003818BF0120A2
:100500007047C36810B504460BB19B6898472046F6
:1005100010BD036818470B68036070477047884236
:1005200038B504460D460ED0FFF7C8FE1022002154
:1005300020460BF088FCEB681BB15B68294620461F
:100540009847EB68E360204638BD000010B50446CC
:1005500021B910220BF077FC204610BD0022034B7E
:10056000426082600160C360F6E700BFA0C8000877
:10057000704700F08DB8A0F1B400FFF7FABF00F0AB
:100580008AB8A0F1B400FFF7FABF00000A4B10B51B
:1005900003F10802026003F1280294330446C0F814
:1005A000B420C0F8B830B43000F0C4F9204600F0F0
:1005B0001DF9204610BD00BF3CC90008A0F1B400E1
:1005C000E4E7A0F1B800E1E710B50446FFF7DEFF6D
:1005D0002046D02100F0FAFF204610BDA0F1B40063
:1005E000F2E7A0F1B800EFE77047704738B504466E
:1005F0001D46049B00F056F8294604F1B40000F0B3
:1006000071F9064B03F10802226003F128029433CA
:10061000C4F8B420C4F8B830204638BD3CC900083E
:10062000704701F1090300EB0313DA6832B100EB04
:1006300001111846D1F89C20126810477047416894
:1006400030B4034671B1D0E9032000F0010402B9CF
:1006500044B1451001EB60000CB149598A589968C2
:1006600030BC104730BC704770B50646044656F89B
:10067000443B0D461B6898473046294601F0F4FB81
:100680002368C4F8B05020465B68BDE87040184746
:10069000443001F05DBD10B544300C4601F06AFDF8
:1006A000204610BD2DE9F04F87B0002501932F4B58
:1006B000036010262E4B43600446C0E90355C0E991
:1006C000055588469146858332462946806020300C
:1006D0000BF0B9FB04F144073246294604F130001F
:1006E0000BF0B1FB04F1900A2946A4F840504C22CB
:1006F00038460BF0A8FB04F1A00B324629465046C1
:100700000BF0A1FB3246294658460BF09CFB019B9F
:10071000C4F8B0303246294602A80BF094FB02A977
:100720005046FFF7FCFE02A8FFF7C8FD32462946F7
:1007300002A80BF088FB02A95846FFF7F0FE02A8BA
:10074000FFF7BCFD4A464146384601F0A7FBD4F806
:10075000B010384601F088FB38460649224601F0C1
:100760009BFC204607B0BDE8F08F00BFE0C9000841
:100770003F060008230600082DE9FF4103681546DF
:100780000F4604461B6805F10906984704EB061658
:1007900000F0DEFAFA68F36804F14408A2B10BB97C
:1007A00000F0DCFC39463046FFF7B9FE012229464D
:1007B000404601F07DFC00F0D5FA236820465B68D6
:1007C000984704B0BDE8F0810BB100F0DBFC1022CB
:1007D000002168460BF037FB69463046FFF79FFE65
:1007E0006846FFF76BFD0022E1E700001FB51A4BDA
:1007F000036004461022002168460BF024FB00220F
:1008000069462046FFF7B8FF6846FFF757FD1022FC
:10081000002168460BF017FB012269462046FFF7CE
:10082000ABFF6846FFF74AFD04F1A000FFF746FD65
:1008300004F19000FFF742FD04F13000FFF761FE84
:1008400004F12000FFF75DFEA06908B1FFF72EFD5F
:10085000204604B010BD00BFE0C9000810B5044632
:10086000FFF7C4FF2046B42100F0B0FE204610BDC3
:100870007047704700207047F8B50368DB6D0D4680
:1008800004468F1898472E46BE42236806D05B6DFB
:1008900016F8011B204698470130F5D12368204601
:1008A0001B6E9847701BF8BDF8B50368DB6D0D46ED
:1008B00004468F1898472E46BE42236807D09B6D8A
:1008C00020469847431C02D006F8010BF4E7236842
:1008D00020461B6E9847701BF8BD00207047002013
:1008E000704770470F4B13B50022044640F8043B95
:1008F000FFF7EEFC0C4B23606C33636000236361F5
:100900000A49204600F0AEFE0346606128B9009017
:1009100002460146064800F0BFFA00F0CDFC204632
:1009200002B010BD4CC8000864CA0008D2C5000857
:10093000190101800A4B03F10802743310B5044613
:100940000260436040690AF04DFD064B236020467B
:100950005C3340F8043FFFF7D9FC204610BD00BFD0
:100960005CCA0008F8C9000838B503680446DB6DA6
:100970000D4698470122606900210AF07BFF6169FA
:1009800028460AF06DFF236805461B6E20469847EF
:10099000284638BD4FF0100300F00CB84FF020038C
:1009A00000F008B84FF0300300F004B84FF04003F7
:1009B00000F000B8EFF308804FF0040172460A42DD
:1009C00001D0EFF309809C46254B196802680A6044
:1009D000043142680A60043182680A600431C268E6
:1009E0000A600431F0C147460F6004314F460F6082
:1009F000043157460F6004315F460F6004310269CD
:100A00000A60083142690A60043182690A6004316F
:100A1000C2690A600431034620334FF40076324243
:100A200000D0043375464FF01006354200D14833EC
:100A30000C46103C2360EFF309820A600431EFF3A7
:100A400008820A60043172460A600431EFF31482AE
:100A50000A606046024B196800F0A6FAFEE7000043
:100A6000D8CA000830B591FAA1F391FAA1F1B3FA0E
:100A700083F304685B000325B1FA81F105FA03F3FF
:100A8000490024EA03038A401343036030BD000099
:100A90007FB52B4B002207284FD8DFE800F0041267
:100AA0001E2A364E4E4200921A6B264842F0010230
:100AB0001A631B6B03F001030093009B07B05DF802
:100AC00004FB01921A6B204842F002021A631B6B6E
:100AD00003F002030193019BF0E702921A6B1B489B
:100AE00042F004021A631B6B03F004030293029B9F
:100AF000E4E703921A6B164842F008021A631B6B74
:100B000003F008030393039BD8E704921A6B114880
:100B100042F010021A631B6B03F010030493049B52
:100B2000CCE705921A6B0C4842F080021A631B6BEB
:100B300003F080030593059BC0E7084800F098F98F
:100B40000038024000000240000402400008024059
:100B5000000C024000100240001C0240D5C50008F5
:100B600010B54FF47071044604F00F0401F070F8F2
:100B70000120A04010BD00004B1C70B504460E467D
:100B8000018216D0C1F30310FFF782FF05463046FD
:100B9000FFF7E6FF238A074A656103F00F03206031
:100BA00052F82330A36105F110031835C4E902554A
:100BB000636070BD7CCB0008B0F9100001F0C4B8D0
:100BC0000A46D0E905010AB9FFF74CBF0122FBE74D
:100BD00008B502F0B9F8002008BD000008B50A4BBE
:100BE0001B684BB100F0EAFF00F0D6FF4FF47A72B9
:100BF000002309F0D9FF08BD044B586A4FF47A73FB
:100C0000B0FBF3F0F7E700BF58040020000C0040F1
:100C100003460122D3E84F0FC3E8412FC0B2002999
:100C2000F8D17047D0E85F3F5B18C0E8523F002A18
:100C3000F8D198B27047D0E85F3F5B1AC0E8523FE6
:100C4000002AF8D198B27047D0E84F3FC0E8421F61
:100C5000D8B2704700B589B000F07AF8052101A834
:100C600000F010FA114E124D0424039B019A1A60F1
:100C7000304600F0B1FF019B049A1B04136030461C
:100C800000F0AAFF013CF0D10424039B019A1A60F2
:100C9000284600F0A1FF019B049A1B04136028461C
:100CA00000F09AFF013CF0D1DEE700BFF0490200FE
:100CB000801A060007B5014600220190022000F0CC
:100CC00081FB00F045F8019908460BF0D7F901992E
:100CD0000246022000F076FB03B05DF804EB00F062
:100CE00041B8000000B5A3B002460B4601A884211C
:100CF0000AF046FF832806D9074B1A681B79CDF8FE
:100D000083208DF88730002802DD01A8FFF7D2FF8D
:100D100023B05DF804FB00BFF6C500080FB407B5AB
:100D200004A951F8040B0191FFF7DCFF03B05DF853
:100D300004EB04B07047EFF31080C04300F00100F3
:100D40007047EFF30580003818BF0120704700009E
:100D500008B500F013F8024A13680133136008BDA8
:100D6000D8030020044A136823B1013B13600BB978
:100D700000F016B8704700BFD8030020EFF31083CF
:100D800072B6054A117831B90449DB4303F0010317
:100D90000B70012313707047DD030020DC0300207B
:100DA000034B00221A70034B1B7803B162B67047E5
:100DB000DD030020DC03002008B50B48FFF728FF07
:100DC00028B1FFF7C5FFBFF34F8F20BFFDE7FFF747
:100DD000B8FF08B1FFF73EFFFFF7ADFF0028F9D0DD
:100DE00001200AF059F800BF2004002070B51B4C08
:100DF0008EB034EA200428BF04460D461646002172
:100E0000282204A80BF01FF8CDE901460395FFF74F
:100E10009FFF134A13680133012B136009D101AD01
:100E20000FCD104C0FC40FCD0FC40FCD0FC42B68C6
:100E3000236001AC0FCC0C4D0FC50FCC0FC50FCCF0
:100E40000FC523682B60094B1B6813B1A5F1300057
:100E50009847FFF787FF00200EB070BD0101FF80AB
:100E6000E0030020EC03002024040020E403002021
:100E70000FB407B501210648CDF804E0FFF7E4FE02
:100E8000019A014610B90348FFF7B0FFFFF794FF3E
:100E9000E80300200001FF8008B504460121064850
:100EA00076461546FFF7D0FE20B932462946204641
:100EB000FFF79CFFFFF780FFE8030020F0B52C4E02
:100EC0002C4F85B000243546214656F8042B384671
:100ED0000134FFF723FF0D2CF6D1AB6C02936B6C42
:100EE00001932B6C244C0093D5E90E23696B2348A6
:100EF000FFF714FF21682248FFF710FFE16AA26A9A
:100F0000A36AA06A266BE76B000CCDE9016700902D
:100F1000C3F307231B48D2B2FFF700FFA36A1E06E4
:100F200003D5616B1848FFF7F9FEA36A180403D5CF
:100F3000A16B1648FFF7F2FEEB6C190712D51448A7
:100F4000FFF7ECFE2B6DDA070FD51248FFF7E6FE30
:100F5000EB6C5B074CBF1048104805B0BDE8F04093
:100F6000FFF7DCBE0E48FFF7D9FE0E48EEE700BFE4
:100F700048170020FBC5000800ED00E009C6000886
:100F800058C6000866C60008B5C60008C3C60008F3
:100F9000D1C60008E0C6000810C700081CC700083A
:100FA00000C70008EDC6000813B504461548FFF752
:100FB000B5FE302C17D0402C1AD0202C1DD1124851
:100FC000124CFFF7ABFE1248FFF7A8FEFFF776FFC3
:100FD0001048FFF7A3FE104A104900230093D26B7C
:100FE0002046FFF759FF0E480E4CFFF797FEEAE741
:100FF0000D480E4CFFF792FEE5E70D480D4CFFF74C
:101000008DFEE0E728C7000851C700083E01FF80B9
:101010007EC7000889C7000848170020A8C7000835
:1010200060C700083F01FF8069C700084001FF80DA
:1010300074C700083D01FF8038B5036804460D46BB
:101040005AB18268136020460121FFF7B9FD294695
:101050002046BDE83840FFF7AFBDC2681B04F1E78A
:1010600037B50D4604460192FFF786FD013507D0DE
:10107000019A0021204603B0BDE83040FFF7DCBFF5
:1010800003B030BD0022FFF7EBBF000008B501F050
:1010900009FE01F0A9F801F0F7FD01F003FE024B93
:1010A00001221A6008BD00BF580400201FB5431C70
:1010B00010D105B05DF804FB83420AD18968039022
:1010C00000F0C6FD0398002105B05DF804EB00F0C8
:1010D0003BBE0C31B1F900305A1CEDD10023024661
:1010E000009302481946FFF7D7FE00BF3001018088
:1010F000884207B502460AD0431C08D0013105D00A
:101100000023054800931946FFF7C6FE014608462E
:1011100003B05DF804FB00BF30010180B1F900307D
:101120005A1C01D118467047834201D14868704764
:101130000C31F3E7421C13B504460AD0FFF7EEFF6B
:10114000431C06D100230448009322461946FFF7AA
:10115000A3FE02B010BD00BF3001018013B5074CE3
:1011600001212046FFF75EFD034628B900900146A5
:1011700022880348FFF790FE02B010BD5C040020F7
:101180002301048013B5094C01212046FFF753FDCC
:101190004FF6FF73984206D100232288044800933B
:1011A0001946FFF779FE02B010BD00BF5C040020B5
:1011B000240104806FF01C0070476FF01500704729
:1011C000012070470020704770470000F8B5074EB7
:1011D00015460C468F18BC4205D014F8011B30464A
:1011E00000F0C8FFF7E72846F8BD00BF9C170020B5
:1011F00038B511F001048DB205D0084800F0E8FDC3
:10120000041E18BF0124EB0605D5044800F0F6FDC6
:1012100008B144F01004204638BD00BF9C170020E0
:1012200010B5044609F052FE204610BD10B50C461C
:101230002AB1044800F08CFF2070012010BD104638
:10124000FCE700BF9C17002038B51D46074B036024
:10125000074B1B68044633B9064800F01FFE0548DB
:10126000294600F001FE204638BD00BFE4CA000850
:10127000B00400209C170020002070470020704719
:1012800008B5012009F008FE074A08491368184408
:10129000884289BF064B10600C224FF0FF308CBF94
:1012A0001A601846704700BF9C020020007C012095
:1012B000401700200120704700210AF037BB70471B
:1012C000704708B5FFF7FBFF08BD08B5FFF7F8FF4B
:1012D00008BD037803F00303012B09D0037803F062
:1012E0000302012A04D043F0020303700120704777
:1012F00000207047037823F0030343F001030370D9
:10130000704700003F2870B504462FDC184D55F893
:1013100020305A1C13D1022811DCFFF7AFFF03461F
:1013200058B92046FFF7A8FF034630B9114E33786D
:10133000BFF35B8FDB0704D50F4B45F8243018460D
:1013400070BD3046FFF7C5FF0028F5D04FF41653A7
:10135000032202210848FFF777FF3046FFF7CAFF54
:10136000064A07490448FFF7A5FFE5E70023E6E73B
:101370009C010020600400206C04002098010020E3
:10138000C911000838B50546FFF7BCFF0B4B002418
:1013900043F8254030B90AF0D7FD092303604FF028
:1013A000FF3038BD03685B699847051E04DA0AF010
:1013B000CBFD6D420560F2E72046F2E79C0100207C
:1013C000FFF7E0BF13B5CDE90021FFF79BFFDDE993
:1013D000002140B90AF0B8FD092303604FF0FF3443
:1013E000204602B010BD0368DB689847041EF7DA98
:1013F0000AF0AAFD64420460F0E708B5131E07DA9C
:101400000AF0A2FD162303604FF0FF33184608BD13
:10141000FCD0FFF7D7FF40EAE073F7E713B5CDE95B
:101420000021FFF76FFFDDE9002140B90AF08CFDD4
:10143000092303604FF0FF34204602B010BD03685B
:101440009B689847041EF7DA0AF07EFD6442046048
:10145000F0E7002A08B503DBBDE80840FFF7DEBF70
:101460000AF072FD162303604FF0FF3008BD10B57F
:10147000FFF748FF044628B90AF066FD0923036018
:10148000204610BD0368DB699847041EF8DA0AF0AD
:101490005BFD644204600024F2E737B54023CDF8D9
:1014A0000100054668468DF800300AF0ADF90446A3
:1014B00030B12846FFF7DBFF10B12046FFF7FCFEF6
:1014C000204603B030BDFFF7D2BF13B5CDE90021F0
:1014D000FFF718FFDDE9002140B90AF035FD0923C7
:1014E00003604FF0FF34204602B010BD03681B6953
:1014F0009847041EF7DA0AF027FD64420460F0E71B
:10150000FFF7E3BF10B5FFF7FDFE30B90AF01CFD91
:10151000092303604FF0FF3010BD03689B699847B3
:10152000041E04DA0AF010FD64420460F2E70020B1
:10153000F2E700000A4D08B52B68044698680AF0E7
:1015400005F82B68D8680AF001F80120FFF7DAFFE8
:101550000220FFF7D7FF0CB1FFF77CFBFEE700BFCF
:101560004403002038B50D46FFF7CCFE044630B9E1
:101570000AF0EAFC092303604FF0FF3038BD03682E
:10158000DB699847002814BF4FF400534FF4004321
:101590006B60236820469B6A984728610020EDE72E
:1015A000FFF7E0BF1FB5039009F088FC039A0346DC
:1015B00020B9009001460348FFF76EFC05B05DF8C6
:1015C00004FB00BF1F010180FFF7ECBF09F07EBCE8
:1015D00009F07CBC10B504460848FEF75FFE084AD7
:1015E0004023002152F8040BA04208BF42F8041C1B
:1015F000013BF7D10148FEF751FE10BD6404002005
:101600009C01002010B50F48FEF748FE0E4B032446
:1016100053F824206AB10134402CF9D10AF094FC2B
:10162000182303600748FEF739FE4FF0FF342046C9
:1016300010BD4FF0FF32034843F82420FEF72EFE82
:10164000F5E700BF640400209C01002010B50446AB
:10165000FFF7D8FF0028A4BF014B43F8204010BD7E
:101660009C01002073B506460191FFF7EFFF051EB0
:1016700013DB0199FFF711FF044630B9084B53F80B
:101680002520964204D143F82500204602B070BDC3
:101690000AF05AFC09230360F7E70024F5E700BFCE
:1016A0009C0100200EB42DE9F04187B00190FFF7B6
:1016B000A9FF041E13DB00230199039304A8FEF77E
:1016C000D5FE04A8FEF718FF1B4E054668B90AF0C0
:1016D0003BFC1323036046F824504FF0FF342046B0
:1016E00007B0BDE8F04103B0704704A8FEF7F2FE72
:1016F000074604A837B1FEF7F6FE0390039B46F8B1
:101700002430ECE7FEF7DDFE05460028DFD0036855
:1017100004A8D3F80880FEF7C9FE0D9B024603A972
:101720002846C04705460028E8D00AF00DFC6D4267
:10173000056046F82470D0E79C01002070B50E4685
:10174000154905460AF02EFC044618B9FFF7DAFDE4
:10175000204670BD114928460AF024FC20B901201A
:10176000FFF7D0FD0124F3E70D4928460AF01AFCE3
:1017700020B90220FFF7C6FD0224E9E72B78402BB1
:1017800002D1D5F80140E3E726F400412846BDE840
:101790007040FFF787BF00BF40CB000847CB000871
:1017A00038CB000870470000084B094998684FF093
:1017B0000053C21802F16042126843F8042B8B42B6
:1017C000F7D1024B4FF000529A60704700ED00E0F5
:1017D0009401002008B5FFF7E7FFFFF757FC01F081
:1017E00007FBFFF7DFFF08BD2DE9F74F446894F8CA
:1017F0003A100646002955D1016849688847716842
:10180000096A814205464DD0206AE168A6682562D2
:10181000281A0140384886428C464FF0000E39D0D5
:1018200094F83BB0D4E90A5A0027A1FB0001BBF1B0
:10183000000F46D0CBF1200801FA08F820FA0BFC83
:10184000ABF1200E21FA0EFE4CEA080C4CEA0E0C0D
:101850002D1821FA0BFEABF120094AEB010ACBF15E
:1018600020080EFA0BF10CFA09F941EA09012CFAE9
:1018700008F80CFA0BF02B1A41EA080100936AEB06
:1018800001030193DDE90023BB4208BFB2420CD241
:10189000C4E90A23D4E90C0110EB0C0041EB0E0162
:1018A000C4E90C0103B0BDE8F08F009B1CF1010CF2
:1018B0004EF1000E9A1B019B63EB0703C4E90A2358
:1018C000E8E732463B4609F06FF912EB050843EBB7
:1018D0000A09B94508BFB04584468E4602D2C4E91C
:1018E0000A89D7E710F1010C41F1000EB8EB0602AE
:1018F00069EB0703E2E700BF40420F00824206D9CE
:101900008A420BD9884294BF002001207047884248
:1019100006D98A428CBF0020012070470120704701
:10192000002070472DE9F74FD0F8048098F83A303E
:101930000746002B40F0818098F83930002B7CD18D
:10194000FFF752FF7E683A6873680192002B66D0F9
:10195000D6E90C01D3E90023994208BF904205D390
:10196000019B5B6903B0BDE8F04F1847141A63EBA5
:101970000105D6E90623AB4208BFA242D6F8109073
:1019800006D3B2682E4B9A4219D1A14528BFA14671
:10199000326A019B9144F2681B6909EA020210460F
:1019A000019298473B685B689847019A0146D8F8CE
:1019B0002000FFF7A3FF00283FD03B68D1E796F84F
:1019C0003B30EBB1A3F1200CC3F1200224FA02F268
:1019D00004FA03F005FA03F104FA0CFC194C41EA8D
:1019E0000C0111430019164A4FF000044FF0000398
:1019F00044EB010109F0D8F8814528BF8146C7E7CB
:101A00001048A2FB04AB02FB05BB1AEB00004FF031
:101A100000010B4A4FF000034BEB0101EAE7D8F855
:101A20001030D8F82000D8F80C201844019B1B690E
:101A3000104003B0BDE8F04F184703B0BDE8F08F89
:101A400040420F003F420F002DE9F04F436893F8EA
:101A5000382085B00546002A63D193F83A30002B30
:101A60005FD103681B6898472B68DB699847036858
:101A70002BB92D4800931A461946FFF70DFA1F217E
:101A8000012202FA01F4A3425FFA81FA02D001397D
:101A9000F7D18A464668321F1C2A05D900232348FD
:101AA00000931A461946E8E71C4614F1FF384FF038
:101AB00000031F494FF0070743F1FF399740C1FB6F
:101AC000078922464046494609F06EF86B682A6845
:101AD00003934FF00008C3E90088526889468346A3
:101AE0009047039B0122186202FA06F66B680021F8
:101AF0000020013EC3E90A01C3E90C01C3E9036701
:101B00002846C3E906B99C6083F83BA01A8783F88E
:101B10003A80FFF769FE284605B0BDE8F04FFFF7B1
:101B200001BF05B0BDE8F08F0E01048005010480FF
:101B300040420F0070B50446FFF70AF92368DB68DE
:101B40009847636893F83A201AB1BDE87040FFF7F0
:101B500009B9012283F8392063685B68A3B1204684
:101B6000FFF742FE65686E68D5E90C01D6E90023EF
:101B7000994208BF904207D3F3686B602B68002B33
:101B8000EAD0B0689847E7E76368002283F8392015
:101B90002046FFF7C7FED8E738B50446FFF754FFE5
:101BA000FFF7D6F82046FFF71FFE6368D3E90C4520
:101BB000FFF7D8F82046294638BD704700487047DF
:101BC00050CB0008024B1B680BB102481847704706
:101BD000A002002050CB0008034B596A5A6A521ADF
:101BE0008242FBD3704700BF000C004030B591FA31
:101BF000A1F391FAA1F1B3FA83F384685B000325A2
:101C0000B1FA81F105FA03F3490024EA03038A409B
:101C10001343836030BD30B591FAA1F391FAA1F17D
:101C2000B3FA83F3C4685B000325B1FA81F105FAC6
:101C300003F3490024EA03038A401343C36030BD21
:101C4000012A02D0022A18BF0022FFF7E4BF0000D9
:101C50002DE9F84300F00F023A4B1FFA80F9C0F368
:101C6000031053F82270C1F3831801F007060D46E4
:101C7000FEF70EFFB8F10F0F0CBF032242463946A4
:101C80000446FFF7B3FF022E28D0032E58D0711E52
:101C90004B424B4197FAA7F2B2FA82F22168520006
:101CA000032000FA02F221EA020197FAA7F2B2FA3F
:101CB00082F252009340013E0B43012E236005D86F
:101CC00063682A074CBF3B43BB436360C5F3011203
:101CD00039462046BDE8F843FFF7B2BF19F0080FB8
:101CE000C5F3832217D03B0A93FAA3F1B1FA81F12D
:101CF000406A93FAA3F389004FF00F0CB3FA83F311
:101D00000CFA01F19B0020EA010102FA03F30B43F4
:101D100063620223BEE797FAA7F1B1FA81F1036A81
:101D200089000F2000FA01F123EA010197FAA7F3D5
:101D3000B3FA83F39B0002FA03F30B432362E8E751
:101D40003346A7E77CCB000838B500F00F021F4BE5
:101D5000C0F3031053F822500C46FEF799FE95FA93
:101D6000A5F2B2FA82F35A0001680323934095FA70
:101D7000A5F2B2FA82F20B405200D340013B012B94
:101D80001AD8E31E022B436809D82B43032C436067
:101D90001AD101222946BDE83840FFF751BF23EA96
:101DA0000503012C4360F4D0022C0BD029460022FD
:101DB000BDE83840FFF72FBF04F0FD03012BE8D04A
:101DC000052CF1D10222E5E7052CEEE77CCB0008DB
:101DD0004368094A9B0182B0D3581A68120706D596
:101DE000002201921A6801925A680192019A1868B9
:101DF000C0F3401002B07047E81700204368034A60
:101E00009B01D3581868C0F3C0107047E817002032
:101E100003464068134A810110B41C688C5002EBE1
:101E200080109A684260DA6882601A69C2605A69F2
:101E300002611A6A82610022C284C2618284C28500
:101E40008285B3F91A20013205D108235DF8044BCD
:101E5000436100F032BEB3F9183001330CBF0423E4
:101E60000C23F3E7E81700208160FFF7D1BF0000E3
:101E7000094B98420BD0A3F54C43984209D003F587
:101E80005043984214BF4FF0FF30022070470020AB
:101E900070470120704700BF00100140F0B50E46AA
:101EA00085B04149044630461546FFF743F93F499E
:101EB00007462846FFF73EF901463846FFF718F96E
:101EC000022E20600AD0032D08D037490220FFF7E8
:101ED00031F9B84244D13648FEF7CAFF0127354BE5
:101EE000206898424FF000033CD10193324B5A6C6A
:101EF00042F010025A645B6C03F010030193019BE3
:101F0000FFF7B6FF284960603046FFF7CFF8284654
:101F10002649FFF7CBF8701C03D001213046FFF7AC
:101F200013FF691C03D001212846FFF70DFF002392
:101F30004FF41652C4E90223C4E904332362268312
:101F400065832046FFF764FF5FB31C4B1C480122EA
:101F50001A6021464C2205B0BDE8F0400AF080B876
:101F60000027BCE7174A90420FD002F5504290423A
:101F7000C6D10393104B5A6C42F020025A645B6C3A
:101F800003F020030393039BBAE702930A4B1A6CF6
:101F900042F400321A641B6C03F400330293029B78
:101FA000AEE705B0F0BD00BFF4C80008ACC800083B
:101FB000B8C700080010014000380240B0040020FB
:101FC0009C17002000440040F7B5FFF751FF041EA6
:101FD00026DB144F57F8240010B3134DA601AB595C
:101FE0001A68120606D5DB68190603D50F4B0121C6
:101FF0001B689847AB591A68920608D5DB689806A3
:1020000005D50A4B57F824001B6800219847AB59A7
:102010001A68110704D55A69D20744BF5B68019357
:1020200003B0F0BDB8040020E8170020B40400207D
:102030000148FFF7C9BF00BF001401400148FFF786
:10204000C3BF00BF004400400148FFF7BDBF00BF51
:1020500000100140002808DB0123420900F01F00A6
:1020600003FA00F0014B43F82200704700E100E062
:1020700000280DDB4309012200F01F0002FA00F0E6
:102080002033044A42F82300BFF34F8FBFF36F8F12
:10209000704700BF00E100E0034B19604168034B4B
:1020A00043F82120704700BFB4040020B80400208A
:1020B000D0E9000330B4204CA0421BD004F580646A
:1020C000A0421DD0A4F55044A04216D000242046C2
:1020D0001A4D9B01EB58CAB1DA68A1B942F020024F
:1020E000DA60174B00F110029B6843F8224030BCC5
:1020F000FFF7B0BF134C2520EAE7134C2620E7E793
:10210000124C4720E4E742F08002E9E7DA6849B977
:1021100022F02002DA60DB6813F0800F09D130BCB6
:10212000FFF7A6BF22F08002DA60DB6813F0200F11
:10213000F4E730BC704700BF00100140E8170020F2
:1021400000ED00E0492000083D2000083120000893
:1021500038B5456804462046FFF73AFE0028FAD015
:10216000AD01034B5B595868C0F3080038BD00BF90
:10217000E817002070B5466805460C462846FFF76C
:102180003DFE0028FAD0034BB601C4F308049B5966
:102190005C6070BDE8170020DFF830D0002103E05C
:1021A0000B4B5B58435004310A480B4B42189A4280
:1021B000F6D30A4A02E0002342F8043B084B9A4255
:1021C000F9D300F0BDFCFEF72FF870470080012026
:1021D00094CE000898010020A8030020A803002046
:1021E000F0180020FEE7704708B50B4B1A6842F460
:1021F00000721A601A6842F480621A601A6842F427
:1022000080721A60032000F01DF80F20FEF7E0FC3A
:10221000FFF7E9FF002008BD003C024038B5044646
:10222000FEF7DCFC631C1CBF054B1B78054618BF82
:10223000E418FEF7D3FC431BA342FAD338BD00BF1A
:10224000A40200200749CA6822F4E06203021204D3
:1022500003F4E063120C134343F0BF6343F4003311
:10226000CB60704700ED00E02DE9F341044618B95A
:10227000012002B0BDE8F0810368DD0710D42368B7
:1022800098075BD423681A0700F19D8023685B07D9
:1022900000F1BB80A269002A40F01C810020E8E721
:1022A000A54B9A6802F00C02042A07D09A6802F043
:1022B0000C02082A0AD15A68510207D59E4B1B68A6
:1022C0009A03DCD56368002BD9D1D1E76268B2F5F7
:1022D000803F11D11A6842F480321A60FEF77EFC0A
:1022E000954E054633689B03C9D4FEF777FC401B27
:1022F0006428F7D90320BCE78F4DB2F5A02F2B68D7
:1023000007D143F480232B602B6843F480332B6088
:10231000E4E723F480332B602B6823F480232B60C5
:10232000002ADBD1FEF75AFC06462B689F03A6D590
:10233000FEF754FC801B6428F7D9DBE77E4B9A68D4
:1023400012F00C0F07D09A6802F00C02082A11D183
:102350005B685E020ED4784B1A68950702D5E26876
:10236000012A85D11A68216922F0F80242EAC102E5
:102370001A6087E7E268714BB2B101221A60FEF77A
:102380002DFC6D4D06462B68980707D52B682269F2
:1023900023F0F80343EAC2032B6073E7FEF71EFC49
:1023A000801B0228EFD9A5E71A60FEF717FC624EE2
:1023B0000546336899077FF565AFFEF70FFC401BB4
:1023C0000228F6D996E762695D4B7AB101221A605C
:1023D000FEF704FC584E0546736F9F073FF556AF56
:1023E000FEF7FCFB401B0228F6D983E71A60FEF7D4
:1023F000F5FB514E0546736F98077FF547AFFEF723
:10240000EDFB401B0228F6D974E74B4B1A6C12F017
:10241000805228D101921A6C42F080521A641B6CCF
:1024200003F080530193019B0127464D2B68D9058A
:102430001BD5A368404D012B27D12B6F43F001031F
:102440002B67FEF7CBFB3C4E054641F28838336FD5
:102450009B0739D5002F3FF41DAF374A136C23F08B
:102460008053136416E70027DFE72B6843F480737B
:102470002B60FEF7B3FB06462B68DA05D9D4FEF7CE
:10248000ADFB801B0228F7D934E7052B04D12B6F55
:1024900043F004032B67D0E72A6F22F001022A677A
:1024A0002A6F22F004022A67002BCAD1FEF796FB9E
:1024B00041F2883806462B6F9807CBD5FEF78EFB86
:1024C000801B4045F7D915E7FEF788FB401B4045C8
:1024D000BDD90FE7184DAB6803F00C03082B3FF490
:1024E000C7AE194E0023022A336035D1FEF776FBC2
:1024F00007462B68990129D4D4E907321343626A4D
:1025000043EA8213E26A43EA0263A26A5208013A8A
:1025100043EA02436B6001233360FEF75FFB064D25
:1025200004462B689A013FF5B9AEFEF757FB001B36
:102530000228F6D9DEE600BF00380240000047421C
:10254000800E47420070004060004742FEF746FBA5
:10255000C01B0228CDD9CDE6FEF740FB04462B6810
:102560009B017FF59BAEFEF739FB001B0228F6D9D5
:10257000C0E600BF134908B58B6803F00C03042BB9
:102580001CD0082B1CD14A684B68496813F480039F
:1025900014BF0D480D48C1F3881118BF002302F085
:1025A0003F02A1FB000108F0FFFA064B5B68C3F392
:1025B000014301335B00B0FBF3F008BD0248FCE7C8
:1025C0000248FAE70038024000127A000024F400C2
:1025D0002DE9F0410D46044610B90120BDE8F08117
:1025E000434B1A6802F00F028A4227D322689707EA
:1025F0002CD4D00740D43E4B1A6802F00F02AA42F6
:1026000065D8226851076BD4130707D5394A216969
:10261000936823F4604343EAC1039360FFF7AAFF82
:10262000344B354A9B68C3F30313D35CD840334B18
:1026300018600F20FEF7CCFA0020CFE7CAB21A705C
:102640001B6803F00F038B42C7D1CFE7294B12F071
:10265000040F1EBF996841F4E0519960160742BF0C
:10266000996841F4604199602249A0688B6823F021
:10267000F00303438B60BCE762681E4B012A1CD148
:102680001B6813F4003FA8D01A4EB36823F003036D
:102690001343B360FEF7A2FA41F288380746B368E5
:1026A000626803F00C03B3EB820FA4D0FEF796FA36
:1026B000C01B4045F3D9032090E7911E01291B68F8
:1026C00002D813F0007FDEE713F0020FDBE7EAB277
:1026D0001A701B6803F00F03AB427FF47EAF90E7E4
:1026E0000449E0688B6823F4E05303438B608BE775
:1026F000003C024000380240BCCB0008A802002089
:10270000044B054A9B68C3F38223D35C034A1068D9
:10271000D840704700380240CCCB0008A802002007
:10272000044B054A9B68C3F34233D35C034A1068E9
:10273000D840704700380240CCCB0008A8020020E7
:102740000F2303600B4B9A6802F0030242609A6801
:1027500002F0F00282609A6802F4E052C2609B6864
:10276000DB0803F4E0530361034B1B6803F00F0322
:102770000B60704700380240003C02407047000088
:10278000224A036890420ED0B0F1804F0BD0A2F5E0
:102790007C42904207D002F58062904203D002F55D
:1027A0008062904215D14A6823F070031343174AA0
:1027B000904219D0B0F1804F16D0A2F57C429042E1
:1027C00012D002F5806290420ED002F580629042F3
:1027D0000AD00F4A904207D002F58062904203D09F
:1027E00002F58062904203D1CA6823F44073134318
:1027F00003608B68C3620B688362044B984204BF1A
:102800000B69036301234361704700BF000001406F
:102810000040014010B50446A0B190F8393003F0F3
:10282000FF021BB980F83820FFF7A8FF02232068B9
:1028300084F83930211DFFF7A3FF012384F83930D4
:10284000002010BD0120FCE7036A10B501248C4074
:1028500023EA04030362036A02FA01F10B430362F1
:1028600010BD000010B5044601220068FFF7ECFF20
:102870002368064A934202BF5A6C42F400425A64EB
:102880001A6842F001021A60002010BD00000140E9
:102890002DE9F8430368C1681A69044622F44052DE
:1028A0000A431A612569A268D968C0692A43656923
:1028B00021F416412A4321F00C0102430A43DA6055
:1028C0005A69A16922F440720A43B0F5004F5A6177
:1028D000774A79D1934203D002F58062934243D183
:1028E000FFF71EFF636819254FF0640868435B001B
:1028F000B0FBF3F3B3FBF8F31F01FFF711FF6368BD
:1029000068435B00B0FBF3F6FFF70AFF63686843B8
:102910005B00B0FBF3F3B3FBF8F308FB1363DB00DE
:102920003233B3FBF8F35B0003F4F876FFF7F8FEFD
:10293000626868435200B0FBF2F9FFF7F1FE63688A
:10294000226868435B00B0FBF3F3B3FBF8F308FBCA
:102950001393DB003233B3FBF8F303F007033B447C
:1029600033449360BDE8F883FFF7CAFE6368192516
:102970004FF0640868435B00B0FBF3F3B3FBF8F37C
:102980001F01FFF7BDFE636868435B00B0FBF3F611
:10299000FFF7B6FE636868435B00B0FBF3F3B3FB7D
:1029A000F8F308FB1363DB003233B3FBF8F35B008F
:1029B00003F4F876FFF7A4FE626868435200B0FBA8
:1029C000F2F9FFF79DFEBAE7934202D0394A9342EB
:1029D0003FD1FFF7A5FE636819254FF064086843EF
:1029E0009B00B0FBF3F3B3FBF8F31E01FFF798FE77
:1029F000636868439B00B0FBF3F7FFF791FE6368E1
:102A000068439B00B0FBF3F3B3FBF8F308FB1373CD
:102A10001B013233B3FBF8F303F0F007FFF780FE3E
:102A2000626868439200B0FBF2F9FFF779FE6368D1
:102A3000226868439B00B0FBF3F3B3FBF8F308FB99
:102A400013931B013233B3FBF8F303F00F033B4343
:102A500086E7FFF755FE636819254FF06408684361
:102A60009B00B0FBF3F3B3FBF8F31E01FFF748FE46
:102A7000636868439B00B0FBF3F7FFF741FE6368B0
:102A800068439B00B0FBF3F3B3FBF8F308FB13734D
:102A90001B013233B3FBF8F303F0F007FFF730FE0E
:102AA000626868439200B0FBF2F9FFF729FEBEE7C7
:102AB0000010014000140140704710B5044640B3B7
:102AC00090F8393003F0FF021BB980F83820FFF787
:102AD000F3FF2268242384F83930D36823F40053A9
:102AE000D3602046FFF7D4FE23681A6922F490428F
:102AF0001A615A6922F02A025A61DA6842F40052D5
:102B0000DA6000202023E06384F8393084F83A301A
:102B100010BD0120FCE77FB502210F23CDE9013173
:102B20004FF48052002301A8CDE903320593FFF74B
:102B30004FFDB0FA80F0400907B05DF804FB0000DB
:102B40000F49D1F8883043F47003C1F888300D4B39
:102B50001A68002042F001021A6098601A6822F098
:102B6000847222F480321A60074A5A601A6822F48A
:102B700080221A60D8604FF000638B60704700BFFE
:102B800000ED00E0003802401030002410B58EB097
:102B90001D4B002400941A6C42F080521A641B6C86
:102BA0001A4A03F080530093009B0194136823F4A6
:102BB000404343F400431360136803F4404301931C
:102BC000A042019B4FF0010302930CBF4FF48033EE
:102BD0004FF4A023039302224FF48003CDE908238E
:102BE00008214FF4A8730420CDE90A130723CDE987
:102BF0000C0302A8FFF738FB18B9FFF78CFF0EB0E3
:102C000010BD2046FBE700BF0038024000700040C6
:102C100010B58EB000241A4B00941A6C42F080520A
:102C20001A641B6C174A03F080530093009B0194B5
:102C3000136823F4404343F4004313601368039480
:102C400003F440430193019B032302930123059363
:102C5000102306930A934FF4A8710423CDE90B13B4
:102C60000222072302A8CDE908240D93FFF7FCFAFE
:102C700018B9FFF750FF0EB010BD2046FBE700BFAC
:102C8000003802400070004008B50120FFF77EFFC9
:102C900028B9FFF7BDFF10B90148FEF7E9F808BDF4
:102CA000EDC70008174A1849936803F00C03042B7A
:102CB00010B50DD0082B0DD0144B0B60114B144ADE
:102CC0009B68C3F30313D25C0B68D3400B6010BD49
:102CD000104BF2E75468506852686302C2F38812DE
:102CE0004CBF0C4B094B00F03F00B3FBF0F35343D8
:102CF000044A5268C2F3014201325200B3FBF2F3BC
:102D0000DBE700BF00380240A80200200024F400E6
:102D1000BCCB000800127A00074B084A13601A69FE
:102D2000910707D5DA68920704D56FF002021A619D
:102D3000FEF748BF704700BF000C0040AC180020F1
:102D400000487047D4CB000830B589B001A903A86A
:102D5000FFF7F6FCFFF7D4FC002302931E4B019013
:102D60001A6C1E4C42F008021A641A6C02F0080237
:102D70000292029A1A6A42F008021A621A6A22F051
:102D800008021A62069AA3F50B3323604FF0FF3353
:102D9000E360134BF2B9B0FBF3F00138002560603B
:102DA0000E482561A5606561FFF734FD0D4B0E4AA5
:102DB0009B68C3F808210D4B4FF480225A600748E6
:102DC0002946FFF74FFD2268D36823F00203D36042
:102DD00009B030BD4000DEE700380240AC180020EA
:102DE00040420F0000ED00E0192D000800E100E076
:102DF00004480268D36823F00203D3600021FFF780
:102E000031BD00BFAC180020014B586A704700BFAD
:102E1000000C0040054B1B686FF0020258631A61FA
:102E2000DA6842F00202DA60704700BFAC18002096
:102E3000064B1B686FF002021A615A6942F00202E7
:102E40005A61DA6842F00202DA607047AC1800207A
:102E5000034B1A68D36823F00203D360704700BFA6
:102E6000AC180020024B1B686FF002021A61704719
:102E7000AC18002084B00190009100238DF80F3031
:102E80009DF90F30184604B07047000000B585B0BA
:102E90000190009100238DF80B30019B002B02D193
:102EA0004FF0FF3358E0009B002B02D14FF0FF336F
:102EB00052E02B4BD3E900014FF000024FF04043AA
:102EC00007F00AFE0346002B06D0009BD3E900233F
:102ED0002349C1E9002305E0214BD3E900230099F0
:102EE000C1E900231E4BD3E90023019B5B681B68EB
:102EF0001C4A1360019B5B685B681B4A1360019B63
:102F00005B689B68194A1360019B5B68DB68184A21
:102F10001360184B00221A6001F008FB0023039392
:102F20000023039307E0144A039B144942F823103B
:102F3000039B01330393039B012BF4D900F06AFF39
:102F400003468DF80B309DF90B30002B02D10C4B52
:102F500001221A709DF90B30184605B05DF804FB8C
:102F6000F00200202007002024070020280700206E
:102F70002C07002030070020C404002089450008E9
:102F80001D07002000B587B0019000238DF8173091
:102F90000023049300238DF80F302E4B1B78DBB2F7
:102FA000002B0CBF01230023DBB28DF80E302A4B1F
:102FB00002221A70019B002B0BD1264B1B78DBB22F
:102FC000002B06D1254B1B78DBB2002B01D101234E
:102FD00000E000238DF80F3017E00A20FFF71EF9FC
:102FE000049B03F51C5310330493019BB3F1FF3F83
:102FF00005D0049A019B9A4201D9012300E00023E5
:103000008DF80F30002000F04BFF124B1B78DBB225
:10301000002B08D1114B1B78DBB2002B03D19DF89C
:103020000F30002BD9D00C4B03221A709DF80F30B3
:10303000002B02D09C238DF817309DF80E30002B0A
:1030400001D001F09BFB9DF91730184607B05DF8E1
:1030500004FB00BF1B0700201D0700201C070020E9
:1030600000B587B003468DED000BADF80E300023A0
:103070008DF8173001238DF816304FF000024FF015
:103080000003DDE9000107F031FD0346002B02D00B
:103090004FF0FF3352E0BDF80E30FF2B02D94FF056
:1030A000FF334BE0274B1B78DBB2032B04D0254BBF
:1030B0001B78DBB2012B02D1224B04221A70BDF81F
:1030C0000E30012B1BD8BDF80E301F4A52F82330AA
:1030D000002B14D001F0C6FE03468DF815309DF884
:1030E0001530022B0BD1BDF80E30174A52F82330A1
:1030F000BDF80E201046984703468DF81630BDF8EF
:103100000E30ADF81230BDF80E3018469DED000BB4
:1031100000F0E2FD9DF81630002B08D0BDF812300B
:10312000184601F079FE03468DF8173004E0BDF82B
:103130001230184601F0C1FE9DF91730184607B04D
:103140005DF804FB1D070020C404002000B583B017
:1031500000238DF80730002000F0A2FE03468DF812
:1031600007309DF90730184603B05DF804FB0000F6
:1031700000B583B000238DF807300C4B06221A707F
:1031800000F02AFF03468DF8073008220021084886
:1031900008F059FE01F07CFA044B00221A709DF9E8
:1031A0000730184603B05DF804FB00BF1D07002080
:1031B000C4040020024B1B78DBB21846704700BFE6
:1031C0001C070020024B1B78DBB21846704700BF7B
:1031D00034070020F0B599B00190019BDB6F1B68AC
:1031E000D3E90023CDE91423019BD3E90623CDE9DC
:1031F0001223019B1B6AD3E90023CDE91023019B15
:10320000D3F884301B680F93019B9B680E930E9B31
:103210001B680D930E9B5B680C930E9B9B680B9336
:103220000E9BDB680A9302230993019B5B680022D3
:103230001A70099BDB001A460F990D9808F010FFD1
:10324000019B9B6F0C9A1A6000F044FBA74BD3E9DB
:103250000001DDE9102307F0D7F902460B46CDE95E
:1032600002230023179324E0179BDB000D9A1344DD
:10327000D3E90045179BDB000C9A1344D3E9000106
:10328000DDE9022307F0C0F902460B461046194655
:10329000179BDB000F9AD61802460B46204629469C
:1032A00006F0FCFF02460B46C6E90023179B0133DC
:1032B0001793179A099B9A42D6DB8D4BD3E90001ED
:1032C000DDE9102307F0A0F902460B461046194627
:1032D000019BDB6F1C68DDE9142306F0DFFF02466B
:1032E0000B46C4E90023019B9B6F0B9A1A6000F008
:1032F00003F900F0EFFA0023179316E07B4A179BBF
:103300000333DB001344D3E90001DDE9102307F0A8
:103310007BF902460B461799C90060316944583958
:10332000C1E90023179B01331793179B012BE5DDA0
:103330000023179338E0179BDB000D9A1344D3E961
:103340000045179BDB000C9A1344D3E90001DDE92B
:10335000022307F059F902460B4616461F46179BF3
:10336000DB000B9A1344D3E90001DDE9042307F0E5
:103370004BF902460B463046394606F08FFF0246AF
:103380000B4610461946179BDB000F9AD6180246CB
:103390000B462046294606F081FF02460B46C6E949
:1033A0000023179B01331793179A099B9A42C2DB9C
:1033B0004F4BD3E90201DDE9102307F025F902465E
:1033C0000B4610461946019BDB6F1C68DDE9142390
:1033D00006F064FF02460B46C4E90023019B9B6F85
:1033E0000A9A1A6000F088F800F074FA0023179324
:1033F00016E03E4A179B0633DB001344D3E9000175
:10340000DDE9102307F000F902460B461799C900C1
:10341000603169445839C1E90023179B0133179380
:10342000179B022BE5DD002317934CE0179BDB0075
:103430000D9A1344D3E90045179BDB000C9A134403
:10344000D3E90001DDE9022307F0DEF802460B466E
:1034500016461F46179BDB000B9A1344D3E9000165
:10346000DDE9042307F0D0F802460B463046394622
:1034700006F014FF02460B4616461F46179BDB005C
:103480000A9A1344D3E90001DDE9062307F0BCF8EA
:1034900002460B463046394606F000FF02460B4610
:1034A00010461946179BDB000F9AD61802460B46AA
:1034B0002046294606F0F2FE02460B46C6E90023E6
:1034C000179B01331793179A099B9A42AEDB019B16
:1034D000DB6F1968DDE91223C1E90023019B5B68FA
:1034E00001221A7000BF19B0F0BD00BFE8CB000880
:1034F00030CC00080000000030B587B0AC4B93F82A
:10350000C031012B10D1AA4BD3F8983101331846A2
:1035100007F000F8A64BD3E96823A54C07F074F830
:1035200002460B46C4E90823A14B93F8C031002B97
:103530000AD19F4BD3F884301B689D4AD2F8C4113E
:10354000D3E90023C1E90023994BD3F8C431D3E96F
:103550000023CDE904234FF00002964BDDE904017E
:1035600007F0C4FA0346002B3DD04FF00002924B07
:10357000DDE9040107F048F802460B468F49C1E92E
:103580000C238F4BD3E904018D4BD3E9022307F0C1
:1035900065F902460B46104619464FF00002864B6D
:1035A00007F032F802460B4614461D46844BD3E919
:1035B00002234FF00000834907F050F902460B4602
:1035C000104619467D4BD3E90C2307F01DF802463F
:1035D0000B462046294606F061FE02460B46774917
:1035E000C1E90A2388E04FF00002774BDDE90401CE
:1035F00007F07CFA0346002B38D070494FF00002E8
:10360000724BC1E90C236E4BD3E904016C4BD3E937
:10361000022307F023F902460B46104619464FF0E5
:1036200000024FF0000306F0EFFF02460B4614467F
:103630001D46634BD3E902234FF00000614907F0B8
:103640000DF902460B46104619464FF000025F4B3B
:1036500006F0DAFF02460B462046294606F01EFE1B
:1036600002460B465549C1E90A2345E04FF00002E6
:10367000574BDDE9040106F0C7FF02460B46104632
:1036800019464FF00002534B06F008FE02460B4667
:103690004A49C1E90C234A4BD3E90401484BD3E919
:1036A000022307F0DBF802460B46104619464FF09E
:1036B0000002474B06F0A8FF02460B4614461D4683
:1036C0003F4BD3E902234FF000003E4907F0C6F814
:1036D00002460B4610461946384BD3E90C2306F038
:1036E00093FF02460B462046294606F0D7FD0246C8
:1036F0000B463249C1E90A232D4B93F8C031012B07
:103700000CBF01230023DBB28DF80F302B494FF0A3
:1037100000024FF00003C1E90023284BD3E9004524
:10372000274BD3E90A012C4BD3E9002306F06CFFA9
:1037300002460B462046294606F0B0FD02460B46DF
:103740001E49C1E900231D4BD3E90C011B4BD3E9F2
:10375000002306F0A1FD02460B461849C1E90223E9
:10376000174BD3E90201154BD3E9022306F04CFFB6
:1037700002460B4610461946174BD3E9022306F0C2
:103780008DFD02460B460D49C1E904230B4BD3E9DD
:1037900004010B4BD3E90C2307F0C6F90346002BB9
:1037A0001CD0074BD3E90C230449C1E9042326E0CC
:1037B00020050020000054400000C83FD004002035
:1037C000B00200200000F03F00005E4000002E40EC
:1037D0000000C0BF00003E40080500203A4BD3E97E
:1037E00004013A4BD3E90E2307F080F90346002B7E
:1037F00005D0364BD3E90E233349C1E90423324BBC
:10380000D3E90A01304BD3E9042306F047FD024611
:103810000B462D49C1E906232C4BD3E900012A4B65
:10382000D3E9022306F0F0FE02460B462649C1E921
:103830000823274B93F8C031012B1ED1244B93F85A
:10384000C031012B19D100238DF80E30204BD3F855
:10385000A831184606F05EFE19A3D3E9002306F04E
:10386000D3FE02460B46CDE900239DED000B01205F
:10387000FFF7F6FB03468DF80E30154B93F8C03179
:10388000012B18D1124B08331846FFF7A3FC104B3D
:10389000D3F898210132C3F898210D4B0C4AD2F885
:1038A000C411D3E90823C1E90023094BD3F8A821A7
:1038B0000132C3F8A82100BF07B030BDAFF30080CC
:1038C0007B14AE47E17A843FD0040020B002002090
:1038D0002005002000B583B0134BD3F81C310193B1
:1038E000124BD3E90801124BD3E9002306F08CFEFA
:1038F00002460B460199C1E90023019BD3E900016F
:103900000C4BD3E9062306F0C9FC02460B4601998D
:10391000C1E90023074BD3E908230199C1E9022338
:1039200000BF03B05DF804FB20050020B0020020BA
:1039300008050020D0040020674B674A03F5E073B8
:10394000D360654B644A03F5E273C2F88430624B7E
:10395000614A03F5D07393625F4B5F4A03F58E7340
:10396000C2F880305C4B5C4A03F58873C2F88C3037
:10397000594B594A03F5C473C2F88830564B564A1E
:1039800003F5C673C2F89030534B534A03F58A735C
:10399000C2F89430504B504A03F58C73C2F89830FB
:1039A0004D4B4D4A03F59073C2F808314A4A4A4BD1
:1039B000C3F8D020484B484A9A60474BDB68012245
:1039C0001A70454B002283F8FC20434B002283F8F9
:1039D0000C21414B404A03F59473C2F868313E4BC9
:1039E0003D4A03F59C73C2F86C313B4B3A4A03F5F0
:1039F000A473C2F87031384B374A03F5AC73C2F880
:103A00007431354B354AC3F81021334B344AC3F86F
:103A1000202131494FF000024FF00003C1E96C232F
:103A20002D4B2D4A03F5B47313612B4B2D4A5A616C
:103A3000294B294A03F5E473C2F8C43126494FF0F3
:103A40000002294BC1E96E23234921A3D3E90023B6
:103A5000C1E96823204B254AC3F878211E4B244A2C
:103A6000C3F87C211C4B234AC3F880211A4B224AFD
:103A7000C3F88421184B214A5A60204B204A1A600F
:103A80001F4B204A1A601E4B1E4A5A60124A124BA4
:103A90005B6802F5CA729A600F4A0F4B5B6802F5C9
:103AA000BC725A600C4A0C4B5B68D2F8C421DA60D5
:103AB0000A494FF000024FF00003C1E90023124B06
:103AC000D3E906230549C1E9022300BF704700BFBF
:103AD0007B14AE47E17A843F2005002008050020D2
:103AE00018050020E0CB000800C082405EFD956F05
:103AF000E55B77C86F31F43BBD806DA1F80600200F
:103B00000C07002048CC0008B002002000BF70471E
:103B100008B50F4B1B785A1CD1B20D4A1170002BFF
:103B200009D00C4B01221A60094B1B78013BDAB219
:103B3000074B1A700BE062B600BFFFF7DDFC72B6F0
:103B400000BF034B1B78013BDAB2014B1A7008BD72
:103B5000180700201407002000B585B0514B0393CF
:103B6000514B029300238DF80730504B00221A70FE
:103B70004F4B00221A7001DFFEF736FB05F08EFF77
:103B8000FFF790F84B4B1B6800221A6000210020C1
:103B9000FFF770F903468DF807309DF90730002BC9
:103BA00002D09DF9073079E0FFF7C6FE414B1B6854
:103BB0005A68404B1B6803F5DC7319461046FFF743
:103BC00065F903468DF807309DF90730002B0DD1BC
:103BD0004FF0FF30FFF7D6F9FFF7ECFA0346002B62
:103BE00004D0344B1B68012283F8C1219DED030AE8
:103BF00005F0CCFFFFF7E6FA0346002B0CD1FFF7E8
:103C0000D9FA0346002B07D12A4B1B6893F8C13120
:103C1000002B01D1012300E00023DAB2244B1A70FB
:103C200062B600BF30E0FFF791FA03468DF8073027
:103C3000FFF7C8FA0346002B0AD1FFF7BBFA034689
:103C4000002B05D11B4B1B6893F8C131002B01D011
:103C5000012300E00023DAB2144B1A70134B1B78D7
:103C6000DBB2002B0CBF01230023DBB21A46104B42
:103C70001A700E4B1B78DBB2002B05D00E4B1B6865
:103C80000D4A23F001031360094B1B78DBB2002BB4
:103C9000C9D1FFF73BFFFFF76BFA0023184605B0C9
:103CA0005DF804FB0AD7233C0000A8421907002056
:103CB0001A070020DCCB000810E000E084B003907D
:103CC00002910192039B029A1A60039B0433019AAA
:103CD0001A6000BF04B0704770B58AB08DED020B5A
:103CE0000346ADF80630BDF80630012B77D14FF012
:103CF0000002414BDDE9020106F086FC02460B465C
:103D0000CDE906239FED381B9DED060B06F004F967
:103D100053EC102B1046194606F026FF0346059378
:103D20000023099332A3D3E90023DDE9060106F05D
:103D3000FBFE0346002B0ED02DA3D3E90023DDE9C3
:103D4000060106F08BFD02460B461046194606F0AA
:103D50000BFF03460993099A05992848FFF7AEFF20
:103D6000274BD3E900014FF00002264B06F0B4FECA
:103D70000346002B2ED1224BD3E900014FF0000265
:103D80004FF0404306F0A8FE0346002B22D11C4B07
:103D9000D3E90001DDE9022306F07EFA02460B4674
:103DA00014461D464FF00002174BDDE9020106F0F4
:103DB0002BFC02460B4601210E462046294606F002
:103DC00095FE0346002B01D100231E46F3B21A468E
:103DD0000E4B1A700E49DDE90223C1E9002300BF32
:103DE0000AB070BDAFF30080000000000000F04199
:103DF0000000E0FFFFFFEF4100408F404807002038
:103E0000F00200200000F0BF0000B03C34070020AA
:103E10005007002000B585B00023029300230193D2
:103E200000238DF80F301C494FF000024FF00003C3
:103E3000C1E9002319494FF000024FF00003C1E926
:103E4000002301AA02AB1146184605F0C7FB029BEE
:103E5000019A1146184603F0D5FD03468DF80F3040
:103E60009DF90F30002B02D09DF90F3010E001AA10
:103E700002AB1146184605F0C3FB029B019A11469E
:103E8000184600F0EBFE03468DF80F309DF90F3019
:103E9000184605B05DF804FB3807002040070020F5
:103EA00000B585B003468DF8073000238DF80F303C
:103EB00000238DF80E300020FEF7B0F900238DF8B6
:103EC0000D3003F02FFF03468DF80F309DF90F30B2
:103ED000002B08D09DF90F3013F1020F03D00123FE
:103EE0008DF80E300DE09DF80D30002B04D19DF9BA
:103EF0000F3013F1020F01D0012300E000238DF8F1
:103F00000D309DF80E30002B1FD100F0D3FE03467C
:103F10008DF80F309DF90F30002B08D09DF90F3030
:103F200013F1020F03D001238DF80E300DE09DF840
:103F30000D30002B04D19DF90F3013F1020F01D089
:103F4000012300E000238DF80D309DF80E30002B8A
:103F50001FD103F073FE03468DF80F309DF90F302B
:103F6000002B08D09DF90F3013F1020F03D001236D
:103F70008DF80E300DE09DF80D30002B04D19DF929
:103F80000F3013F1020F01D0012300E000238DF860
:103F90000D309DF80730002B10D00020FEF73EF9C1
:103FA0009DF80E30002B03D19DF80D30002B01D170
:103FB000012300E000238DF80E3002E001238DF88C
:103FC0000E309DF80E30002B3FF478AF9DF90F3086
:103FD000184605B05DF804FB00B583B000238DF8EA
:103FE0000230314B1B78DBB2002B02D0002000F0F6
:103FF00055FF00F037FF03468DF80330002301938F
:104000000FE00A20FEF70AF9019B03F51C53103359
:1040100001930120FFF744FF00F024FF03468DF8D1
:104020000330019B214A934203D29DF80330002BB9
:10403000E7D100F01DFF03468DF8023003F0AEFF1C
:1040400003468DF802301A4B00221A70194B0022D9
:104050001A70194B00221A60184B00221A60184B74
:1040600000221A60174B00221A60174B00221A60B8
:1040700016494FF000024FF04043C1E900230A4BBC
:1040800000221A7008220021114807F0DCFE1149B5
:104090004FF000024FF00003C1E900239DF9023008
:1040A000184603B05DF804FB340700200087930333
:1040B0001B0700201C0700202007002024070020E9
:1040C000280700202C07002030070020F0020020E5
:1040D000480700205007002000B587B0634B1B68DD
:1040E0000593059B002B00F0BC80614B1B78DBB275
:1040F000002B04D15D4B1B68002B00F0B2805D4BA0
:104100001B78DBB2022B40F0AC805B4B1B78002BA2
:1041100040F0A780059BD3E90023CDE90223574B4C
:104120001B78002B00F08E80554B1B78DBB2002BE8
:1041300004D0534B1B78DBB2022B01D1012300E0EA
:1041400000238DF807304E4B1B78DBB2012B04D0D7
:104150004B4B1B78DBB2022B01D1012300E0002383
:104160008DF806309DF80730002B33D0454BD3E94E
:104170000023DDE9020106F0CDFC0346002B0AD046
:10418000414BD3E900013F4BD3E9002306F0AEFCDD
:104190000346002B14D13B4BD3E90023DDE9020198
:1041A00006F0C2FC0346002B14D0374BD3E90001C4
:1041B000344BD3E9002306F08FFC0346002B09D0D3
:1041C000324B1B68002B02D1314B01221A702A4B53
:1041D00001221A709DF80630002B33D0294BD3E909
:1041E0000023DDE9020106F081FC0346002B0AD022
:1041F000254BD3E90001234BD3E9002306F08AFCC9
:104200000346002B14D11F4BD3E90023DDE9020143
:1042100006F062FC0346002B14D01B4BD3E90001CF
:10422000184BD3E9002306F07FFC0346002B09D08E
:10423000164B1B68002B02D1154B01221A700E4B36
:1042400001221A700C4B1B78002B0CBF012300239A
:10425000DBB21A46094B1A700B49DDE90223C1E9AA
:10426000002300BF07B05DF804FB00BF5C0700201F
:10427000600700207C0700208B07002088070020B3
:1042800078070020680700208007002074070020BE
:104290008A07002082B000238DF80730984B1B78E6
:1042A000DBB2002B19D1974B00221A70964B0022DB
:1042B0001A70964B1B78DBB2002B30D0904B022249
:1042C0001A70924B00221A70914B1B78DBB2002BB4
:1042D00025D101238DF8073021E08C4B00221A7084
:1042E000884B1B78DBB2002B09D08A4B00221A7056
:1042F000834B00221A70834B00221A700FE0844B0C
:104300001B78DBB2002B03D101238DF8073006E0C8
:104310007D4B1B788DF807307B4B00221A70784B51
:104320001B78DBB2042B00F2D18001A252F823F0FB
:1043300045430008774400085F4300083144000803
:10434000B9430008714B1B78DBB2002B00F0CB8027
:104350006B4B02221A706D4B00221A70C3E09DF85D
:104360000730002B00F0C1806B4B1B68002B0DDD6C
:10437000674B1B78DBB2012B08D1674B1B681A46D1
:10438000664B1A605E4B03221A70AEE0644B1B68EA
:10439000002B0AD05F4B01221A70614B1B685F4AE9
:1043A0001360574B04221A709FE05A4B00221A7078
:1043B000534B00221A7098E0584B1B68002B04D016
:1043C000564B1B68013B554A1360544B1B68002B2E
:1043D00040F08D80534B1B78DBB2012B06D14D4B47
:1043E00000221A70464B00221A7080E04E4B1B6868
:1043F000002B0AD0474B00221A704B4B1B68474AD0
:1044000013603F4B01221A7071E09DF80730002BBA
:1044100007D0434B1B68414A1360394B04221A7082
:1044200065E03C4B00221A70354B02221A705EE0A8
:104430003A4B1B68002B04D0384B1B68013B374AB2
:104440001360364B1B68002B53D1354B1B68002B78
:104450000AD0304B01221A70314B1B682F4A13606F
:10446000274B04221A7044E02A4B00221A70244B76
:1044700000221A703DE0294B1B68002B04D0274B0B
:104480001B68013B254A1360244B1B68002B32D16B
:104490009DF80730002B15D0214B1B68002B0AD04C
:1044A0001C4B01221A701E4B1B681C4A1360144BD4
:1044B00004221A701FE0174B00221A70104B0022C2
:1044C0001A7018E00E4B02221A7014E0114B0022F1
:1044D0001A700D4B00221A700A4B00221A70084BFA
:1044E00000221A7008E000BF06E000BF04E000BF31
:1044F00002E000BF00E000BF00BF02B0704700BF95
:104500007C070020790700208B070020FC02002098
:104510007A0700208A070020740700208C070020FB
:10452000F80200207B070020700700200E494FF0A2
:1045300000024FF00003C1E900230C4B00221A7067
:104540000B4B1B78DAB20B4B1A700B4B00221A7014
:104550000A4B00221A700A4B00221A60094B0022F3
:104560001A70002318467047800700208807002033
:104570007A070020890700208A0700208B07002087
:104580008C0700207C07002000B585B00346ADF8FD
:104590000630BDF80630012B41D1334B1B78DAB21F
:1045A000324B1B789A4214BF01230023DBB28DF8F3
:1045B0000F302D4B1B78DAB22C4B1A709DF80F3050
:1045C000002B0BD02A4B00221A702A4B00221A70A3
:1045D000294B00221A60294B00221A70224B1B78AB
:1045E000DBB2012B1BD1254B1B78DBB2002B04D196
:1045F000234B1B78DBB2002B08D1204B1B78DBB29E
:10460000012B0CD11C4B1B68012B08D11A4B00222B
:104610001A601B4B00221A70184B02221A70124BA0
:104620001B78DBB2012B08D1164B1B889BB2BDF85F
:1046300006209A4201D1FFF74FFDBDF80630012B4D
:1046400005D1FFF727FE104B00221A7006E00E4B33
:104650001B78002B02D00D4B1B7801E0044B1B781C
:10466000184605B05DF804FB7A0700208907002092
:104670008A0700208B0700208C0700207C07002081
:10468000FC0200205807002091070020900700201E
:1046900025494FF000024FF00003C1E90023234BEE
:1046A00000221A70224B00221A70224B00221A702C
:1046B000214B00221A80214B00221A70204B00222D
:1046C0001A70204B00221A601F4B00221A701F4BD9
:1046D00000221A701E4B00221A601E4B00221A7014
:1046E0001D494FF000024FF00003C1E900231B4BAE
:1046F0004FF47A721A601A4B00221A60194B00228A
:104700001A60194B00221A70184B01221A70184BAC
:1047100000221A70174B00221A70174B00221A70D1
:1047200000231846704700BF80070020880700203C
:104730007C07002089070020580700208A070020F6
:104740008B0700208C070020900700209107002095
:104750005C0700206007002068070020F8020020A6
:10476000700700207407002078070020FC0200205A
:10477000790700207A0700207B070020164B1B7862
:10478000DBB2002B25D1154B1B78DBB2002B0BD0F5
:10479000134B1B78DBB2002B06D1124B01221A708F
:1047A000114B01221A7014E00D4B1B78DBB2002B69
:1047B0000BD00A4B1B78DBB2002B06D1094B002231
:1047C0001A70094B01221A7003E0074B00221A707D
:1047D000FFE700BF704700BF7A070020FC020020FF
:1047E00079070020900700209107002000B587B0CE
:1047F000039002910192009300238DF8173003F08B
:10480000C7FB0490039B1B68184603F0E1FD0021E1
:10481000009803F04AFB0246029B1A6003F036FB45
:104820000246019B1A60029B1B68002B10D0029B62
:104830001B681946049804F0E3F80246039B1A60CB
:10484000039B1B68002B06D1F6238DF8173002E07E
:10485000F8238DF817309DF91730184607B05DF82A
:1048600004FB00B585B0039002910192039B002BDD
:1048700002D0039803F0ACFD019B00221A600023D4
:10488000184605B05DF804FB84B0039002910192D4
:10489000019B02221A604FF0FF33184604B07047A4
:1048A00084B003460A468DF8073013468DF806306B
:1048B00005238DF80F309DF80730F02B03D9002326
:1048C0008DF80F302EE09DF80730E32B07D99DF8C7
:1048D0000730F02B03D801238DF80F3022E09DF82C
:1048E0000730D22B03D99DF80730E22B0BD99DF866
:1048F0000730C02B0BD19DF80630002B07D09DF858
:104900000630022B03D802238DF80F300AE09DF801
:104910000730C72B06D99DF80730D22B02D80323C6
:104920008DF80F309DF80F30184604B07047000026
:1049300000B58DB00390029101920093039B0A93FE
:104940000A9B1B788DF8273000238DF82F309DF8B7
:104950002730C02B06D1029B012B03D90A9B5B7821
:104960008DF82F30374B1B78002B41D09DF82F202E
:104970009DF8273011461846FFF792FF03468DF841
:104980001B3000238DF82E309DF81B30052B24D0D2
:104990009DF81B302C4A52F82330059300230493D2
:1049A000059B002B19D09DF82720059B10469847A2
:1049B0000490049B002B14BF01230023DBB28DF86D
:1049C0002E309DF82E30002B07D0049B5A68019B97
:1049D0001A60049B9A68009B1A609DF82E30002B89
:1049E0002CD1019B194A1A60009B194A1A6025E0D4
:1049F0009DF82730FF2B1BD1134B1B680893019B9D
:104A000000221A60009B00221A60089B002B15D020
:104A1000089BFF2098470790079B002B0ED0079B11
:104A20005A68019B1A60079B9A68009B1A6005E010
:104A3000019B084A1A60009B00221A6000BF0DB05B
:104A40005DF804FB930700209807002089480008C0
:104A5000E94A00086348000882B003468DF8073031
:104A6000034A9DF80730137000BF02B0704700BFC3
:104A700093070020014B1B781846704794070020CD
:104A800082B003468DF80730054B1A789DF8073041
:104A90001343DAB2024B1A7000BF02B0704700BF76
:104AA0009407002082B003468DF807309DF9073047
:104AB000DB435AB2054B1B785BB213405BB2DAB2F0
:104AC000024B1A7000BF02B0704700BF940700206D
:104AD000014B1B781846704795070020014B1B8837
:104AE000184670479607002086B00346029101924F
:104AF0008DF80F309DF90F30002B05D1029B0493E8
:104B0000049BFF221A7071E0029B0593059BFE2215
:104B10001A709DF90F3010330F2B63D801A252F891
:104B200023F000BFDD4B0008D54B0008CD4B00083B
:104B3000C54B0008BD4B0008B54B0008A54B00084D
:104B4000AD4B00089D4B0008954B00088D4B0008AD
:104B5000854B00086D4B0008654B0008754B00083D
:104B60007D4B0008059B30225A703FE0059B2922AF
:104B70005A703BE0059B22225A7037E0059B2022A9
:104B80005A7033E0059B00225A702FE0059B2322C8
:104B90005A702BE0059B21225A7027E0059B1122B9
:104BA0005A7023E0059B27225A701FE0059B2A229A
:104BB0005A701BE0059B10225A7017E0059B2422B7
:104BC0005A7013E0059B28225A700FE0059B26229D
:104BD0005A700BE0059B31225A7007E0059B332287
:104BE0005A7003E0059B20225A70FFE700BF06B011
:104BF000704700BF86B00346029101928DF80F30D6
:104C000000230593029B002B24D000230493002350
:104C1000049318E0049A13465B0013449B001A4661
:104C2000029B13441B789DF80F209A4208D1049AE6
:104C300013465B0013449B001A46029B13440593E2
:104C4000049B01330493049A019B9A4202D2059B70
:104C5000002BDFD0059B184606B0704700B583B027
:104C600001900091114B1B78002B02D06FF00B03C9
:104C700018E000F0B1FB00F0B9FB03460C4A1360EA
:104C800001F0DAFF01F0F4FF0346094A936002F0F5
:104C9000DDFD02F0E3FD0346054A5360034B0122AC
:104CA0001A700023184603B05DF804FB9207002039
:104CB0009807002000B58DB000238DF82F30002319
:104CC0008DF82E30002309930023089300230793C7
:104CD000002306930023059300230A9300230493E3
:104CE000002303934B4B1B78002B02D16FF008037A
:104CF0008CE007A808AA09A906AB00930346002088
:104D000003F04CF803468DF82F309DF92F30002B1F
:104D100009D09DF92F3013F1040F04D09DF92F30E5
:104D200013F1050F66D1099B002B05D0079A069B4E
:104D30001A44089B9A4203D9F8238DF82F305CE07F
:104D4000099A079B13440A93069903AB04AA0A988D
:104D5000FFF7EEFD049B002B03D1F4238DF82F30D9
:104D60004BE0049B0998079905AA984703468DF8DC
:104D70002E30039B002B3AD0059B002B37D000230D
:104D80008DF82F30069A059B9A4208D2059B07AAF8
:104D900008A909A8FFF72AFD03468DF82F30069BC6
:104DA0001A4600210A9807F04EF89DF92F30002B83
:104DB0001DD1099A079B13440A93039B059A9DF9F9
:104DC0002E000A99984709990898079B059A01921D
:104DD000009303460A464FF6FF71012002F0B0FE31
:104DE00003468DF82F309DF92F30002B04D19DF90B
:104DF0002F300BE000BF00E000BF099B002B03D069
:104E0000099B184603F0E4FA9DF92F3018460DB0BF
:104E10005DF804FB9207002000B585B00346ADF8AD
:104E2000063000238DF80F30002302930C4B1B78C3
:104E3000002B02D16FF008030EE004F077FF029020
:104E4000BDF8063000220299184602F005F9034623
:104E50008DF80F309DF90F30184605B05DF804FB52
:104E600092070020014B1B781846704793070020DB
:104E700008B502F003FD02F0DBFB00F0C7FA1022D8
:104E80000021044806F0DFFF034B00221A700023C4
:104E9000184608BD980700209207002000B585B08D
:104EA0000190019802F072F903468DF80F309DF9D8
:104EB0000F30184605B05DF804FB00B585B0034619
:104EC000ADF8063001238DF80F309DF80F20BDF8A6
:104ED00006300021184602F0BFF803468DF80E3068
:104EE0009DF90E30184605B05DF804FB00B585B09D
:104EF00003468DF807300123039303F00FF8029067
:104F00009DF807200299039BB1FBF3F39A4234BF4B
:104F100001230023DBB2184605B05DF804FB000056
:104F200000B585B001900B468DF8033000F076FA9D
:104F30000390054B1B781A460399019807F090F8E7
:104F400000BF05B05DF804FBB007002000B589B0D4
:104F500003900291019200238DF81F30039A029B67
:104F600013440693069B059300238DF8133002F03B
:104F70008DFA03468DF813309DF81330002B05D1C0
:104F8000019B02221A606FF00A0321E0059B5B7807
:104F9000002B03D0059B5B78012B01D1012300E09E
:104FA00000238DF813309DF81330002B05D1019BA1
:104FB00002221A606FF001030AE00120FFF74CFDA6
:104FC00000238DF81F30019B08221A609DF91F30C5
:104FD000184609B05DF804FB00B587B0034602919E
:104FE00001928DF80F309DF90F30002B22D1029BDA
:104FF000059308220021059806F025FF059BFF2256
:105000001A700522059B5A700022059B9A7002F0C7
:1050100085FF0346DAB2059BDA7002F079FF03469A
:105020009AB2059B9A80059B01229A71059B0122E9
:10503000DA7106E09DF90F30019A02991846FFF7E0
:1050400053FD00BF07B05DF804FB00B587B00390C7
:105050000291019201238DF8173002F017FA0346EE
:105060008DF817309DF81730002B05D1019B0222D7
:105070001A606FF00A0306E00020FFF7EDFC019BC9
:1050800001221A600023184607B05DF804FB84B0C3
:10509000039002910192019B06221A600023184698
:1050A00004B0704700B587B00346029101928DF8B5
:1050B0000F30029B059306220021059806F0C3FEDF
:1050C000059BFF221A70FFF7D5FC03461A46059B85
:1050D0005A70FFF7FDFC03461A46059B9A70FFF7CE
:1050E000FDFC03461A46059B9A8000BF07B05DF899
:1050F00004FB00B587B003900291019200238DF864
:10510000173002F0ABF903468DF817309DF81730D1
:10511000002B03D002F023FF02F0B1F9019B022221
:105120001A606FF00403184607B05DF804FB00B581
:1051300089B003900291019200238DF81F30039AE9
:10514000029B13440693069B059300238DF81330AE
:10515000059B5A68059BDB781946104600F064F9F8
:1051600003468DF813309DF81330002B05D1019BB9
:1051700002221A606FF00B0304E0019B01221A6007
:105180009DF91F30184609B05DF804FB00B58BB0DF
:1051900003900291019200238DF82730039A029B1D
:1051A00013440893089B079300238DF81B3000F0ED
:1051B00035F90590079B5B781846FFF797FE034685
:1051C0008DF81B309DF81B30002B05D1019B02226E
:1051D0001A606FF0010313E0059B002B05D1019BC2
:1051E00002221A606FF00B030AE0079B5A78064B05
:1051F0001A70054B1B785A1C019B1A609DF92730C9
:1052000018460BB05DF804FBB007002000B589B06C
:105210000346029101928DF80F309DF90F30002B5B
:105220002AD100F0FBF80790029B0693012200218F
:10523000069806F008FE069BFF221A70079B002BBB
:1052400021D0134B1B780133019A9A421BD1029B48
:105250000133059300238DF813309DF81330194660
:105260000598FFF75DFE0A4B1B78184600F0F8F82A
:10527000074B00221A7006E09DF90F30019A02993F
:105280001846FFF731FC00BF09B05DF804FB00BF12
:10529000B007002000B589B003900291019200236D
:1052A0008DF81F30039A029B13440693069B0593C7
:1052B00000238DF81330059B5B781846FFF716FE28
:1052C00003468DF813309DF81330002B05D1019B58
:1052D00002221A606FF001031FE0059B5A68059BCC
:1052E000DB781946104600F09FF803468DF813301E
:1052F0009DF81330002B05D1019B02221A606FF03C
:105300000B030AE0059B5A78064B1A70054B1B7875
:105310005A1C019B1A609DF91F30184609B05DF8B0
:1053200004FB00BFB007002000B589B0034602911E
:1053300001928DF80F309DF90F30002B2AD100F02B
:105340006DF80790029B069301220021069806F053
:105350007AFD069BFF221A70079B002B21D0134B6E
:105360001B780133019A9A421BD1029B01330593AA
:1053700000238DF813309DF8133019460598FFF778
:10538000CFFD0A4B1B78184600F06AF8074B002245
:105390001A7006E09DF90F30019A02991846FFF73E
:1053A000A3FB00BF09B05DF804FB00BFB0070020FD
:1053B00000B583B003468DF807309DF8073007220B
:1053C00004491846FFF716FC0346184603B05DF87B
:1053D00004FB00BF4CCC000808B5034800F00CF8F3
:1053E00000F04EF800BF08BDB1530008014B1B6828
:1053F00018467047B407002082B00190024A019B12
:10540000136000BF02B07047B407002008B500F079
:1054100039F80020FFF7F0FF00BF08BD014B1B6803
:1054200018467047A807002082B001900B468DF8FF
:1054300003309DF80330002B04D1019B002B01D1D8
:10544000002307E0054A019B1360044A9DF80330DE
:1054500013710123184602B0704700BFA80700204F
:1054600082B003468DF80730044B1A689DF8073068
:105470001344024A136000BF02B07047A80700201F
:1054800000BF704700BF704700B585B00346ADF858
:10549000063000238DF80F3004F01CFC03460D4A43
:1054A00013600D4B1B68002B0CBF01230023DBB2E4
:1054B0008DF80F309DF80F30002B04D1054B1B6881
:1054C000184604F013FC9DF80F30184605B05DF83F
:1054D00004FB00BFC4070020C007002000B583B054
:1054E0000346ADF80630044B1B68184604F0FEFB7B
:1054F00000BF03B05DF804FBC407002000B583B013
:105500000346ADF8063004F0E5FB0346074A136096
:10551000074B1B680133064A1360044B1B6818468F
:1055200004F0E4FB00BF03B05DF804FBC4070020F7
:10553000C007002000B583B00346ADF8063004F084
:10554000C9FB0346074A1360074B1B68013B064A29
:105550001360044B1B68184604F0C8FB00BF03B07F
:105560005DF804FBC4070020C007002082B003469A
:10557000ADF806300F4B1968BDF8062013465B00E6
:105580001344DB000B445B79022B0BD0094B1968E9
:10559000BDF8062013465B001344DB000B445B7927
:1055A000032B01D1012300E00023DBB2184602B037
:1055B000704700BFB807002000B583B000238DF806
:1055C00007300023ADF804300023ADF804300CE0C0
:1055D000BDF804301846FFF7C9FF03468DF80730C1
:1055E000BDF804300133ADF804300A4B9B88BDF898
:1055F00004209A4203D29DF80730002BE8D09DF892
:105600000730002B0CBF01230023DBB2184603B088
:105610005DF804FBB807002084B00346ADF80630FF
:105620000B468DF8053013468DF804302B4B1B6864
:10563000002B4BD0294B9B88BDF806209A4245D2BF
:10564000264B1968BDF8062013465B001344DB00A7
:105650000B441B68002B39D0204B1968BDF806207D
:1056600013465B001344DB000B441B799DF80520B7
:105670009A422BD2194B1968BDF8062013465B00DD
:105680001344DB000B4419689DF805201346DB002A
:105690009B1A9B000B441B68002B17D00F4B1968FB
:1056A000BDF8062013465B001344DB000B44196869
:1056B0009DF805201346DB009B1A9B000B441B79C9
:1056C0009DF804209A4201D2012300E000238DF8C6
:1056D0000F309DF80F30184604B07047B80700200F
:1056E00084B0034600928DF807300B468DF80630E3
:1056F00000238DF80F309DF80630ADF80C309DF882
:105700000730FF2B06D1BDF80C30FF2B02D8012348
:105710008DF80F309DF80F30184604B0704782B0F6
:1057200003468DF807309DF8073023F01003002B57
:105730000CBF01230023DBB2184602B0704784B0CF
:1057400003468DF8073000238DF80F309DF80730A1
:10575000002B07D09DF80730012B03D09DF80730B0
:10576000022B02D101238DF80F309DF80F3018461F
:1057700004B0704784B003468DF8073000238DF8DD
:105780000F309DF80730002B07D09DF80730012B14
:1057900003D09DF80730022B02D101238DF80F3082
:1057A0009DF80F30184604B0704701231846704723
:1057B00084B00346ADF80630184B1968BDF80620D2
:1057C00013465B001344DB000B441B7B022B0FD101
:1057D000124B1968BDF8062013465B001344DB002A
:1057E0000B44DA880E4B1B889A4201D0012300E05B
:1057F00000238DF80F309DF80F30002B05D0BDF839
:105800000630002B01D1012300E000238DF80F307A
:105810009DF80F30184604B0704700BFB80700204D
:105820000803002084B001900B468DF80330019BE3
:1058300019689DF803201346DB009B1A9B000B445C
:105840000293029B9B68019AD28902FB03F3013306
:1058500003939DF80330002B08D1019B1B7A03F0C2
:105860001003002B02D0039B04330393039B1846C1
:1058700004B0704700B587B0019000238DF8123056
:105880000023059300238DF8133000238DF8133087
:1058900018E09DF8133019460198FFF7C3FF0390F5
:1058A000002302930121039802F0FFFA0290029A6A
:1058B000059B9A4201D9029B05939DF81330013351
:1058C0008DF81330019B1B799DF813209A42E0D389
:1058D000019B1B791A4613465B009918019B1433F0
:1058E0001A46059802F038FE03468DF812309DF9ED
:1058F0001230002B03D0019B4FF0FF325A619DF90B
:105900001230184607B05DF804FB00B583B0019073
:10591000019B5B69B3F1FF3F04D0019B5B691846B3
:1059200002F028FF019B4FF0FF325A6100BF03B025
:105930005DF804FB00B58BB0039002910192002347
:105940008DF82730039A029B13440893089B079312
:10595000079B9A78DB781B021343ADF81A30079B3C
:105960001B798DF81930079B5B798DF8183000236F
:105970008DF817309DF818209DF81910BDF81A30D1
:105980001846FFF749FE03468DF817309DF817308B
:10599000002B05D1019B02221A606FF0010327E062
:1059A000BDF81A301846FFF7E1FD0346002B0CBF87
:1059B00001230023DBB28DF817309DF81730002B40
:1059C00005D1019B02221A606FF0070310E00A4A1A
:1059D000BDF81A301380084A9DF819309370064AB2
:1059E0009DF81830D370019B01221A609DF9273071
:1059F00018460BB05DF804FB0403002000B58BB023
:105A000003900291019200238DF82730039A029BA4
:105A100013440893089B0793444B1B88ADF81A3036
:105A2000424B9B788DF81930404BDB788DF818305D
:105A30000023059300238DF813309DF818209DF85E
:105A40001910BDF81A301846FFF7E6FD03468DF829
:105A500013309DF81330002B05D1019B02221A60F0
:105A60006FF005035EE0BDF81A301846FFF77EFDC3
:105A70000346002B0CBF01230023DBB28DF813304B
:105A80009DF81330002B05D1019B02221A606FF0A4
:105A9000070347E0079B5878079B9978079B5B684B
:105AA0001A46FFF71DFE03468DF813309DF813309C
:105AB000002B05D1019B02221A606FF0010331E037
:105AC0001B4B1968BDF81A2013465B001344DB001A
:105AD0000B4419689DF819201346DB009B1A9B00A4
