:020000040800F2
:100000000080012089280008D5280008590C000824
:10001000610C0008690C0008710C00080000000069
:1000200000000000000000000000000045AE0008D5
:10003000D52800080000000001AE000841AD00080E
:10004000D5280008D5280008D5280008D52800089C
:10005000D5280008D5280008D5280008D52800088C
:10006000D5280008D5280008D5280008D52800087C
:10007000D5280008D5280008D5280008D52800086C
:10008000D5280008D5280008D52800080000000061
:10009000000000000000000000000000D52800085B
:1000A000D5280008D5280008D5280008D52800083C
:1000B000D5280008D5280008D5280008D52800082C
:1000C000D5280008D5280008D5280008D52800081C
:1000D000D5280008D5280008D52800080000000011
:1000E000D5280008D5280008D52800080000000001
:1000F000000000000000000000000000D5280008FB
:1001000000000000D5280008D5280008D5280008E0
:1001100000000000000000000000000000000000DF
:10012000D5280008D5280008D5280008D5280008BB
:10013000D5280008000000000000000000000000BA
:10014000000000000000000000000000D5280008AA
:10015000D5280008D5280008D5280008D52800088B
:10016000D5280008D5280008000000000000000085
:10017000000000000000000000000000000000007F
:1001800000000000D528000800000000000000006A
:10019000D52800080348044B834202D0034B03B127
:1001A00018477047B8060020B8060020000000007D
:1001B0000548064B1B1AD90F01EBA301491002D0C9
:1001C000034B03B118477047B8060020B80600205B
:1001D0000000000010B5064C237843B9FFF7DAFFA2
:1001E000044B13B10448AFF300800123237010BD0A
:1001F000B806002000000000B0E3000808B5054B79
:100200001BB105490548AFF30080BDE80840FFF782
:10021000CFBF00BF00000000BC060020B0E3000814
:10022000A3F5803A704700BF174B002B08BF134B54
:100230009D46FFF7F5FF00218B460F461348144AF1
:10024000121A0CF034FF0E4B002B00D098470D4BC8
:10025000002B00D098470020002104000D000D481D
:10026000002802D00C48AFF300800CF0A7FF20005C
:10027000290004F055FD0BF043FF00BF000008000B
:1002800000000000D91A000800800120B8060020F4
:10029000381C00200000000000000000704710B56E
:1002A0005021044601F014FB204610BD37B5054629
:1002B000044655F8043B9B689847284600F006FC26
:1002C00023688DED010ADB68204698479DED010A01
:1002D00003B030BD0346006818B9186808B9181D86
:1002E0001860704708B50248FFF7F4FF08BD00BF6B
:1002F000D406002008B50248FFF7ECFF08BD00BF98
:10030000D406002073B50546094B0A4E45F8043B58
:10031000044630460191FFF7DDFF0199284600F0C1
:10032000E3FB3046FFF7D6FF204602B070BD00BFAA
:1003300030D80008D4060020024B1B6803B11847D0
:10034000704700BFDC060020C36810B504460BB13F
:100350009B689847204610BD007B704738B50B4B13
:1003600003600023C0E9013104460D4602730848CA
:10037000FFF7B0FF45B1074B1A6862601C60044884
:10038000FFF7A8FF204638BD6560F8E7F8DA0008F7
:10039000E4060020E006002010B5124B036004467E
:1003A0001148FFF797FFA3682BB1104962680B68EB
:1003B000A34210D10A600E4B0B481A68A24204BF38
:1003C00000221A60FFF786FF237B13B9201F01F07C
:1003D00083FA204610BD19465B68A342FBD14A60F0
:1003E000E9E700BFF8DA0008E4060020E006002094
:1003F000EC06002010B50446FFF7CEFF2046102182
:1004000001F066FA204610BDF8B5064614480D46C0
:10041000FFF760FF134B1C6894B1A76877B13846AB
:100420000CF05CFFA84209D12A46314638460CF050
:1004300014FE18B90A48FFF74DFF0FE06468EBE7B8
:10044000072DF7D108482A4631460CF006FE002851
:10045000F0D10348FFF73EFF044B1C682046F8BD6F
:10046000E4060020E006002040D80008EC0600204A
:100470000020704700207047036801221B6900219B
:100480001847036800221B69114618476FF01500D2
:10049000704703681B69184703689B69184703681E
:1004A0009B6A184700290CBF6FF0180000207047A6
:1004B000012070476FF0150070476FF0150070470E
:1004C000112070477047036870B51B690122002135
:1004D00004469847051E0DDB236802221B69002194
:1004E000204698472368064629461B690022204675
:1004F00098473546284670BD70B50D460026C0E9C0
:1005000000660C49044628460CF0D9FD28442060BA
:10051000314623681A782F2A06D101332360FFF76A
:1005200073FF6060204670BD002AF8D001330131AE
:100530002360EEE748D8000800687047406808B5B7
:1005400020B1FFF709FF431E5842584108BD10B5BE
:100550000446FFF7F3FF10B1606800B1043810BD26
:10056000406808B520B1FFF7F7FEB0FA80F0400907
:1005700008BD10B50446FFF7F3FF10B1606800B185
:10058000043810BD4068003818BF01207047C368A8
:1005900010B504460BB19B689847204610BD036810
:1005A00018470B68036070477047884238B50446A7
:1005B0000D460ED0FFF7C8FE1022002120460CF099
:1005C00076FDEB681BB15B68294620469847EB68CF
:1005D000E360204638BD000010B5044621B9102262
:1005E0000CF065FD204610BD0022034B4260826086
:1005F0000160C360F6E700BF5CDB000807B50023BD
:1006000003760191009000F005FDDDE9000101F0A5
:1006100099FE00F009FD009803B05DF804FB07B5F2
:1006200001908DED000A00F0F5FC9DED000A0198A7
:1006300001F03AFF03B05DF804EB00F0F5BC037E77
:1006400010B504461BB900F00BFF0123237610BD43
:1006500007B58DED010A009000F0DCFC0098FFF773
:10066000EEFF9DED010A009801F04CFD03B05DF82E
:1006700004EB00F0D9BC037E10B504461BB100F0BA
:1006800003FF0023237610BD07B5019000F0C2FCE4
:10069000019801F031FD0198FFF7EDFF00F0C4FC77
:1006A000019803B05DF804FB704700F08DB8A0F12D
:1006B000B400FFF7FABF00F08AB8A0F1B400FFF76A
:1006C000FABF00000A4B10B503F10802026003F103
:1006D000280294330446C0F8B420C0F8B830B430CF
:1006E00000F0C4F9204600F01DF9204610BD00BFFF
:1006F00068DE0008A0F1B400E4E7A0F1B800E1E78B
:1007000010B50446FFF7DEFF2046D02101F0E0F8E7
:10071000204610BDA0F1B400F2E7A0F1B800EFE769
:100720007047704738B504461D46049B00F056F8E4
:10073000294604F1B40000F071F9064B03F10802F8
:10074000226003F128029433C4F8B420C4F8B8300E
:10075000204638BD68DE0008704701F1090300EB50
:100760000313DA6832B100EB01111846D1F89C206E
:10077000126810477047416830B4034671B1D0E940
:10078000032000F0010402B944B1451001EB600000
:100790000CB149598A58996830BC104730BC704731
:1007A00070B50646044656F8443B0D461B6898470C
:1007B0003046294601F0D0FE2368C4F8B0502046E8
:1007C0005B68BDE870401847443002F039B810B596
:1007D00044300C4602F046F8204610BD2DE9F04F9B
:1007E00087B0002501932F4B036010262E4B4360EA
:1007F0000446C0E90355C0E90555884691468583FE
:1008000032462946806020300CF051FC04F1440748
:100810003246294604F130000CF049FC04F1900AFC
:100820002946A4F840504C2238460CF040FC04F114
:10083000A00B3246294650460CF039FC3246294678
:1008400058460CF034FC019BC4F8B03032462946BF
:1008500002A80CF02CFC02A95046FFF7A6FE02A845
:10086000FFF772FD3246294602A80CF020FC02A9CF
:100870005846FFF79AFE02A8FFF766FD4A46414632
:10088000384601F083FED4F8B010384601F064FE1B
:1008900038460649224601F077FF204607B0BDE8FA
:1008A000F08F00BF0CDF0008770700085B07000827
:1008B0002DE9FF41036815460F4604461B6805F104
:1008C0000906984704EB061600F0A4FBFA68F368E3
:1008D00004F14408A2B10BB900F0C2FD394630461C
:1008E000FFF763FE01222946404601F059FF00F060
:1008F0009BFB236820465B68984704B0BDE8F08105
:100900000BB100F0C1FD1022002168460CF0CFFBB6
:1009100069463046FFF749FE6846FFF715FD00229D
:10092000E1E700001FB51A4B0360044610220021C6
:1009300068460CF0BCFB002269462046FFF7B8FF72
:100940006846FFF701FD1022002168460CF0AFFB5E
:10095000012269462046FFF7ABFF6846FFF7F4FC2B
:1009600004F1A000FFF7F0FC04F19000FFF7ECFCAD
:1009700004F13000FFF70BFE04F12000FFF707FE43
:10098000A06908B1FFF7D8FC204604B010BD00BF35
:100990000CDF000810B50446FFF7C4FF2046B42161
:1009A00000F096FF204610BD70477047002070474A
:1009B000F8B50368DB6D0D4604468F1898472E4640
:1009C000BE42236806D05B6D16F8011B204698478F
:1009D0000130F5D1236820461B6E9847701BF8BD87
:1009E000F8B50368DB6D0D4604468F1898472E4610
:1009F000BE42236807D09B6D20469847431C02D017
:100A000006F8010BF4E7236820461B6E9847701B1D
:100A1000F8BD002070470020704770470F4B13B59A
:100A20000022044640F8043BFFF798FC0C4B23607F
:100A30006C336360002363610A49204600F094FF31
:100A40000346606128B9009002460146064800F05E
:100A500085FB00F0B3FD204602B010BD08DB0008A6
:100A600090DF00084AD80008190101800A4B03F101
:100A70000802743310B504460260436040690BF00D
:100A8000E5FD064B236020465C3340F8043FFFF74A
:100A900083FC204610BD00BF88DF000824DF00086B
:100AA00038B503680446DB6D0D469847012260693E
:100AB00000210CF013F8616928460CF005F8236852
:100AC00005461B6E20469847284638BD08B500F0FD
:100AD00063F807EE900AB8EE670ADFED027A20EEBF
:100AE000270A08BD01088039A1F1F0039BB20F2B42
:100AF00073B504460D4638D92249284600F07CFCDF
:100B000020492060284600F097FC1E4906462846EA
:100B100000F02EFC01222168E2611B4AA4F8485033
:100B20000023C6F384369142C4E90133C4E9083393
:100B3000C4E90A3384F84A6023642361A361E36053
:100B4000236363610AD10193104B5A6C42F48072A3
:100B50005A645B6C03F480730193019B204601F09F
:100B6000EBFE68B10A4800F0E5FA0A49284600F0B1
:100B700043FC08492060284600F05EFC0646C9E7B1
:100B800002B070BD68DB0008002001400038024060
:100B90004DD800081CDC000830B585B090F84A102C
:100BA00001230022CDE901330446039212294FD8D4
:100BB000DFE801F00A2726292B2D2F31333537396D
:100BC0003B3D3F4143484A000092224D6B6823F46D
:100BD000400369466B60204602F006F8204601F0AB
:100BE0004FFF0A21204601F0ABFF78BB204601F001
:100BF000F7FF80B26B6823F440036B6005B030BD33
:100C000002230093E1E70323FBE70423F9E705232D
:100C1000F7E70623F5E70723F3E70823F1E70923BE
:100C2000EFE70A23EDE70B23EBE70C23E9E70D23BE
:100C3000E7E70E23E5E70F23E3E7102300930723FD
:100C40000293C2E71123F9E71223F7E70020D1E767
:100C50000020D3E7002301404FF0100300F00CB850
:100C60004FF0200300F008B84FF0300300F004B854
:100C70004FF0400300F000B8EFF308804FF004019C
:100C800072460A4201D0EFF309809C46254B196851
:100C900002680A60043142680A60043182680A60AE
:100CA0000431C2680A600431F0C147460F60043164
:100CB0004F460F60043157460F6004315F460F60A6
:100CC000043102690A60083142690A6004318269AC
:100CD0000A600431C2690A600431034620334FF4CC
:100CE0000076324200D0043375464FF0100635428C
:100CF00000D148330C46103C2360EFF309820A60B0
:100D00000431EFF308820A60043172460A6004314C
:100D1000EFF314820A606046024B196800F0A6FAED
:100D2000FEE7000004E0000830B591FAA1F391FA63
:100D3000A1F1B3FA83F304685B000325B1FA81F1F2
:100D400005FA03F3490024EA03038A4013430360CE
:100D500030BD00007FB52B4B002207284FD8DFE8BD
:100D600000F004121E2A364E4E4200921A6B26489C
:100D700042F001021A631B6B03F001030093009B16
:100D800007B05DF804FB01921A6B204842F00202A2
:100D90001A631B6B03F002030193019BF0E70292BD
:100DA0001A6B1B4842F004021A631B6B03F0040326
:100DB0000293029BE4E703921A6B164842F0080282
:100DC0001A631B6B03F008030393039BD8E7049299
:100DD0001A6B114842F010021A631B6B03F01003E8
:100DE0000493049BCCE705921A6B0C4842F08002F6
:100DF0001A631B6B03F080030593059BC0E708484B
:100E000000F098F90038024000000240000402405F
:100E100000080240000C024000100240001C02408A
:100E200063D8000810B54FF47071044604F00F0445
:100E300001F090F80120A04010BD00004B1C70B5DF
:100E400004460E46018216D0C1F30310FFF782FF5D
:100E500005463046FFF7E6FF238A074A656103F03F
:100E60000F03206052F82330A36105F110031835F9
:100E7000C4E90255636070BDA8E00008B0F9100035
:100E800001F0E4B80A46D0E905010AB9FFF74CBF02
:100E90000122FBE708B502F0F7FD002008BD0000C5
:100EA00008B50A4B1B684BB101F00AF800F0F6FFD9
:100EB0004FF47A7200230AF0ABFF08BD044B586A66
:100EC0004FF47A73B0FBF3F0F7E700BF7007002030
:100ED000000C004003460122D3E84F0FC3E8412F26
:100EE000C0B20029F8D17047D0E85F3F5B18C0E876
:100EF000523F002AF8D198B27047D0E85F3F5B1AA2
:100F0000C0E8523F002AF8D198B27047D0E84F3F6E
:100F1000C0E8421FD8B2704700B589B000F07AF837
:100F2000052101A800F010FA114E124D0424039B74
:100F3000019A1A60304600F0D1FF019B049A1B040D
:100F40001360304600F0CAFF013CF0D10424039B3B
:100F5000019A1A60284600F0C1FF019B049A1B0405
:100F60001360284600F0BAFF013CF0D1DEE700BF75
:100F7000F0490200801A060007B5014600220190E0
:100F8000022000F0A1FB00F045F8019908460CF0A2
:100F9000A5F901990246022000F096FB03B05DF826
:100FA00004EB00F041B8000000B5A3B002460B46C8
:100FB00001A884210BF018FF832806D9074B1A6873
:100FC0001B79CDF883208DF88730002802DD01A839
:100FD000FFF7D2FF23B05DF804FB00BF84D8000800
:100FE0000FB407B504A951F8040B0191FFF7DCFF1A
:100FF00003B05DF804EB04B07047EFF31080C0431A
:1010000000F001007047EFF30580003818BF0120A1
:101010007047000008B500F013F8024A1368013366
:10102000136008BDF0060020044A136823B1013B99
:1010300013600BB900F016B8704700BFF00600202F
:10104000EFF3108372B6054A117831B90449DB43D6
:1010500003F001030B70012313707047F5060020A5
:10106000F4060020034B00221A70034B1B7803B1D7
:1010700062B67047F5060020F406002008B50B485C
:10108000FFF728FF28B1FFF7C5FFBFF34F8F20BF41
:10109000FDE7FFF7B8FF08B1FFF73EFFFFF7ADFF31
:1010A0000028F9D001200BF02BF800BF38070020F2
:1010B00070B51B4C8EB034EA200428BF04460D46A0
:1010C00016460021282204A80BF0F1FFCDE90146C5
:1010D0000395FFF79FFF134A13680133012B136039
:1010E00009D101AD0FCD104C0FC40FCD0FC40FCDE2
:1010F0000FC42B68236001AC0FCC0C4D0FC50FCC77
:101100000FC50FCC0FC523682B60094B1B6813B1AB
:10111000A5F130009847FFF787FF00200EB070BDA3
:101120000101FF80F8060020040700203C07002092
:10113000FC0600200FB407B501210648CDF804E0F5
:10114000FFF7E4FE019A014610B90348FFF7B0FF2C
:10115000FFF794FF000700200001FF8008B5044658
:101160000121064876461546FFF7D0FE20B93246E3
:1011700029462046FFF79CFFFFF780FF000700206D
:10118000F0B52C4E2C4F85B000243546214656F83C
:10119000042B38460134FFF723FF0D2CF6D1AB6C3E
:1011A00002936B6C01932B6C244C0093D5E90E23B6
:1011B000696B2348FFF714FF21682248FFF710FFEF
:1011C000E16AA26AA36AA06A266BE76B000CCDE90C
:1011D00001670090C3F307231B48D2B2FFF700FF5B
:1011E000A36A1E0603D5616B1848FFF7F9FEA36AD0
:1011F000180403D5A16B1648FFF7F2FEEB6C190734
:1012000012D51448FFF7ECFE2B6DDA070FD5124804
:10121000FFF7E6FEEB6C5B074CBF1048104805B0CB
:10122000BDE8F040FFF7DCBE0E48FFF7D9FE0E48E0
:10123000EEE700BF901A002089D8000800ED00E01A
:1012400097D80008E6D80008F4D8000843D9000869
:1012500051D900085FD900086ED900089ED900084E
:10126000AAD900088ED900087BD9000813B5044616
:101270001548FFF7B5FE302C17D0402C1AD0202C83
:101280001DD11248124CFFF7ABFE1248FFF7A8FE23
:10129000FFF776FF1048FFF7A3FE104A104900231E
:1012A0000093D26B2046FFF759FF0E480E4CFFF714
:1012B00097FEEAE70D480E4CFFF792FEE5E70D4872
:1012C0000D4CFFF78DFEE0E7B6D90008DFD9000826
:1012D0003E01FF800CDA000817DA0008901A00209F
:1012E00036DA0008EED900083F01FF80F7D9000880
:1012F0004001FF8002DA00083D01FF8038B5036835
:1013000004460D465AB18268136020460121FFF75A
:10131000B9FD29462046BDE83840FFF7AFBDC26899
:101320001B04F1E737B50D4604460192FFF786FD31
:10133000013507D0019A0021204603B0BDE83040B6
:10134000FFF7DCBF03B030BD0022FFF7EBBF0000AA
:1013500008B502F047FB01F0BFFA02F035FB02F0DE
:1013600041FB024B01221A6008BD00BF700700203C
:101370001FB5431C10D105B05DF804FB83420AD1B0
:101380008968039000F0E6FD0398002105B05DF840
:1013900004EB00F05BBE0C31B1F900305A1CEDD10A
:1013A00000230246009302481946FFF7D7FE00BF0C
:1013B00030010180884207B502460AD0431C08D09C
:1013C000013105D00023054800931946FFF7C6FEFA
:1013D0000146084603B05DF804FB00BF3001018000
:1013E000B1F900305A1C01D118467047834201D12F
:1013F000486870470C31F3E7421C13B504460AD025
:10140000FFF7EEFF431C06D1002304480093224659
:101410001946FFF7A3FE02B010BD00BF30010180E6
:10142000B1F900305A1C01D118467047834201D1EE
:10143000886870470C31F3E7421C13B504460AD0A4
:10144000FFF7EEFF431C06D1002304480093224619
:101450001946FFF783FE02B010BD00BF30010180C6
:1014600013B5074C01212046FFF73EFD034628B97E
:101470000090014622880348FFF770FE02B010BDBD
:10148000740700202301048013B5094C0121204674
:10149000FFF733FD4FF6FF73984206D100232288F1
:1014A000044800931946FFF759FE02B010BD00BF73
:1014B00074070020240104806FF01C0070476FF057
:1014C00015007047012070470020704770470000EA
:1014D000F8B5074E15460C468F18BC4205D014F8D7
:1014E000011B304601F0BEF9F7E72846F8BD00BF02
:1014F000E41A002038B511F001048DB205D0084877
:1015000000F0DEFF041E18BF0124EB0605D50448D9
:1015100000F0ECFF08B144F01004204638BD00BFD5
:10152000E41A002010B504460AF004FE204610BD5F
:1015300010B50C462AB1044801F082F92070012050
:1015400010BD1046FCE700BFE41A002038B51D4668
:10155000074B0360074B1B68044633B9064801F08C
:1015600015F80548294600F0F7FF204638BD00BFB2
:1015700010E0000804080020E41A00200020704752
:101580000020704708B501200AF0BAFD074A084953
:1015900013681844884289BF064B10600C224FF034
:1015A000FF308CBF1A601846704700BF9C020020B5
:1015B000007C0120881A00200120704700210BF0D8
:1015C000E9BA7047704708B5FFF7FBFF08BD08B5DB
:1015D000FFF7F8FF08BD037803F00303012B09D0E0
:1015E000037803F00302012A04D043F002030370DE
:1015F0000120704700207047037823F0030343F075
:1016000001030370704700003F2870B504462FDCCB
:10161000184D55F820305A1C13D1022811DCFFF761
:10162000AFFF034658B92046FFF7A8FF034630B97D
:10163000114E3378BFF35B8FDB0704D50F4B45F8B2
:101640002430184670BD3046FFF7C5FF0028F5D09E
:101650004FF41653032202210848FFF777FF304664
:10166000FFF7CAFF064A07490448FFF7A5FFE5E769
:101670000023E6E79C010020780700208407002073
:1016800098010020CD14000838B50546FFF7BCFFCF
:101690000B4B002443F8254030B90BF089FD09239A
:1016A00003604FF0FF3038BD03685B699847051E43
:1016B00004DA0BF07DFD6D420560F2E72046F2E7AB
:1016C0009C010020FFF7E0BF13B5CDE90021FFF733
:1016D0009BFFDDE9002140B90BF06AFD092303609F
:1016E0004FF0FF34204602B010BD0368DB68984716
:1016F000041EF7DA0BF05CFD64420460F0E708B505
:10170000131E07DA0BF054FD162303604FF0FF336E
:10171000184608BDFCD0FFF7D7FF40EAE073F7E7B3
:1017200013B5CDE90021FFF76FFFDDE9002140B9D6
:101730000BF03EFD092303604FF0FF34204602B05A
:1017400010BD03689B689847041EF7DA0BF030FD64
:1017500064420460F0E7002A08B503DBBDE80840F6
:10176000FFF7DEBF0BF024FD162303604FF0FF30C0
:1017700008BD10B5FFF748FF044628B90BF018FD67
:1017800009230360204610BD0368DB699847041EE7
:10179000F8DA0BF00DFD644204600024F2E737B57F
:1017A0004023CDF80100054668468DF800300BF067
:1017B0005FF9044630B12846FFF7DBFF10B1204641
:1017C000FFF7FCFE204603B030BDFFF7D2BF13B5D4
:1017D000CDE90021FFF718FFDDE9002140B90BF04A
:1017E000E7FC092303604FF0FF34204602B010BD30
:1017F00003681B699847041EF7DA0BF0D9FC6442B2
:101800000460F0E7FFF7E3BF10B5FFF7FDFE30B966
:101810000BF0CEFC092303604FF0FF3010BD0368CE
:101820009B699847041E04DA0BF0C2FC6442046012
:10183000F2E70020F2E700000A4D08B52B680446E5
:1018400098680AF0B7FF2B68D8680AF0B3FF012048
:10185000FFF7DAFF0220FFF7D7FF0CB1FFF75CFBC1
:10186000FEE700BF5406002038B50D46FFF7CCFE5A
:10187000044630B90BF09CFC092303604FF0FF30A5
:1018800038BD0368DB699847002814BF4FF4005344
:101890004FF400436B60236820469B6A9847286199
:1018A0000020EDE7FFF7E0BF1FB503900AF03AFC18
:1018B000039A034620B9009001460348FFF74EFC07
:1018C00005B05DF804FB00BF1F010180FFF7ECBF0E
:1018D0000AF030BC0AF02EBC10B504460848FEF7EA
:1018E000F9FC084A4023002152F8040BA04208BF2B
:1018F00042F8041C013BF7D10148FEF7EBFC10BD98
:101900007C0700209C01002010B50F48FEF7E2FC88
:101910000E4B032453F824206AB10134402CF9D132
:101920000BF046FC182303600748FEF7D3FC4FF08A
:10193000FF34204610BD4FF0FF32034843F8242007
:10194000FEF7C8FCF5E700BF7C0700209C010020E3
:1019500010B50446FFF7D8FF0028A4BF014B43F899
:10196000204010BD9C01002073B506460191FFF791
:10197000EFFF051E13DB0199FFF711FF044630B995
:10198000084B53F82520964204D143F82500204601
:1019900002B070BD0BF00CFC09230360F7E70024D4
:1019A000F5E700BF9C0100200EB42DE9F04187B09F
:1019B0000190FFF7A9FF041E13DB00230199039395
:1019C00004A8FEF799FD04A8FEF7DCFD1B4E0546B2
:1019D00068B90BF0EDFB1323036046F824504FF079
:1019E000FF34204607B0BDE8F04103B0704704A8BB
:1019F000FEF7B6FD074604A837B1FEF7BAFD03901F
:101A0000039B46F82430ECE7FEF7A1FD05460028CD
:101A1000DFD0036804A8D3F80880FEF78DFD0D9B86
:101A2000024603A92846C04705460028E8D00BF027
:101A3000BFFB6D42056046F82470D0E79C01002092
:101A400070B50E46154905460BF0E0FB044618B983
:101A5000FFF7DAFD204670BD114928460BF0D6FB92
:101A600020B90120FFF7D0FD0124F3E70D492846F6
:101A70000BF0CCFB20B90220FFF7C6FD0224E9E7FA
:101A80002B78402B02D1D5F80140E3E726F4004142
:101A90002846BDE87040FFF787BF00BF6CE0000834
:101AA00073E0000864E0000870470000084B094933
:101AB00098684FF00053C21802F16042126843F870
:101AC000042B8B42F7D1024B4FF000529A607047C3
:101AD00000ED00E09401002008B5FFF7E7FFFFF7F5
:101AE00037FC02F025F8FFF7DFFF08BD2DE9F74FBF
:101AF000446894F83A100646002955D101684968AF
:101B000088477168096A814205464DD0206AE168BC
:101B1000A6682562281A0140384886428C464FF054
:101B2000000E39D094F83BB0D4E90A5A0027A1FB43
:101B30000001BBF1000F46D0CBF1200801FA08F8F4
:101B400020FA0BFCABF1200E21FA0EFE4CEA080C39
:101B50004CEA0E0C2D1821FA0BFEABF120094AEBD2
:101B6000010ACBF120080EFA0BF10CFA09F941EA4F
:101B700009012CFA08F80CFA0BF02B1A41EA0801BB
:101B800000936AEB01030193DDE90023BB4208BF28
:101B9000B2420CD2C4E90A23D4E90C0110EB0C00C8
:101BA00041EB0E01C4E90C0103B0BDE8F08F009BCE
:101BB0001CF1010C4EF1000E9A1B019B63EB070315
:101BC000C4E90A23E8E732463B460AF021F912EB62
:101BD000050843EB0A09B94508BFB04584468E465F
:101BE00002D2C4E90A89D7E710F1010C41F1000ED5
:101BF000B8EB060269EB0703E2E700BF40420F00C3
:101C0000824206D98A420BD9884294BF0020012023
:101C10007047884206D98A428CBF00200120704755
:101C200001207047002070472DE9F74FD0F804805D
:101C300098F83A300746002B40F0818098F8393008
:101C4000002B7CD1FFF752FF7E683A6873680192DF
:101C5000002B66D0D6E90C01D3E90023994208BFD6
:101C6000904205D3019B5B6903B0BDE8F04F184774
:101C7000141A63EB0105D6E90623AB4208BFA24262
:101C8000D6F8109006D3B2682E4B9A4219D1A145CE
:101C900028BFA146326A019B9144F2681B6909EA98
:101CA00002021046019298473B685B689847019A88
:101CB0000146D8F82000FFF7A3FF00283FD03B687B
:101CC000D1E796F83B30EBB1A3F1200CC3F1200231
:101CD00024FA02F204FA03F005FA03F104FA0CFC08
:101CE000194C41EA0C0111430019164A4FF0000447
:101CF0004FF0000344EB01010AF08AF8814528BF48
:101D00008146C7E71048A2FB04AB02FB05BB1AEBF8
:101D100000004FF000010B4A4FF000034BEB0101B4
:101D2000EAE7D8F81030D8F82000D8F80C2018448A
:101D3000019B1B69104003B0BDE8F04F184703B08A
:101D4000BDE8F08F40420F003F420F002DE9F04FF9
:101D5000436893F8382085B00546002A63D193F88C
:101D60003A30002B5FD103681B6898472B68DB690A
:101D7000984703682BB92D4800931A461946FFF778
:101D8000EDF91F21012202FA01F4A3425FFA81FA60
:101D900002D00139F7D18A464668321F1C2A05D97C
:101DA0000023234800931A461946E8E71C4614F11D
:101DB000FF384FF000031F494FF0070743F1FF3989
:101DC0009740C1FB07892246404649460AF020F861
:101DD0006B682A6803934FF00008C3E900885268D3
:101DE000894683469047039B0122186202FA06F651
:101DF0006B6800210020013EC3E90A01C3E90C0120
:101E0000C3E903672846C3E906B99C6083F83BA091
:101E10001A8783F83A80FFF769FE284605B0BDE8C7
:101E2000F04FFFF701BF05B0BDE8F08F0E01048051
:101E30000501048040420F0070B50446FFF7EAF840
:101E40002368DB689847636893F83A201AB1BDE8C5
:101E50007040FFF7E9B8012283F8392063685B68B6
:101E6000A3B12046FFF742FE65686E68D5E90C0114
:101E7000D6E90023994208BF904207D3F3686B600C
:101E80002B68002BEAD0B0689847E7E76368002228
:101E900083F839202046FFF7C7FED8E738B5044657
:101EA000FFF754FFFFF7B6F82046FFF71FFE636801
:101EB000D3E90C45FFF7B8F82046294638BD7047EE
:101EC000004870477CE00008024B1B680BB10248D9
:101ED00018477047A00200207CE00008034B596AB5
:101EE0005A6A521A8242FBD3704700BF000C00406E
:101EF00030B591FAA1F391FAA1F1B3FA83F38468B2
:101F00005B000325B1FA81F105FA03F3490024EAE5
:101F100003038A401343836030BD30B591FAA1F3C7
:101F200091FAA1F1B3FA83F3C4685B000325B1FA17
:101F300081F105FA03F3490024EA03038A401343BD
:101F4000C36030BD012A02D0022A18BF0022FFF769
:101F5000E4BF00002DE9F84300F00F023A4B1FFAEE
:101F600080F9C0F3031053F82270C1F3831801F015
:101F700007060D46FEF7EEFEB8F10F0F0CBF032269
:101F8000424639460446FFF7B3FF022E28D0032EFF
:101F900058D0711E4B424B4197FAA7F2B2FA82F227
:101FA00021685200032000FA02F221EA020197FAA6
:101FB000A7F2B2FA82F252009340013E0B43012E87
:101FC000236005D863682A074CBF3B43BB4363606B
:101FD000C5F3011239462046BDE8F843FFF7B2BF0A
:101FE00019F0080FC5F3832217D03B0A93FAA3F127
:101FF000B1FA81F1406A93FAA3F389004FF00F0C14
:10200000B3FA83F30CFA01F19B0020EA010102FA12
:1020100003F30B4363620223BEE797FAA7F1B1FA19
:1020200081F1036A89000F2000FA01F123EA01011E
:1020300097FAA7F3B3FA83F39B0002FA03F30B4377
:102040002362E8E73346A7E7A8E0000838B500F0C8
:102050000F021F4BC0F3031053F822500C46FEF73B
:1020600079FE95FAA5F2B2FA82F35A0001680323C9
:10207000934095FAA5F2B2FA82F20B405200D34097
:10208000013B012B1AD8E31E022B436809D82B43CE
:10209000032C43601AD101222946BDE83840FFF7DE
:1020A00051BF23EA0503012C4360F4D0022C0BD06E
:1020B00029460022BDE83840FFF72FBF04F0FD039A
:1020C000012BE8D0052CF1D10222E5E7052CEEE743
:1020D000A8E000084B7D2BB1082807D8044B33F843
:1020E000100070470C2801D8024BF8E70020704719
:1020F000E8E00008FAE00008B0F904004FF470715D
:10210000FFF728BFF0B52E4B07681F60B5EEC00A79
:10211000F1EE10FA89B004463ED4F7EE007AB4EE40
:10212000670AF1EE10FAC8BFB0EE670AD4ED037A81
:10213000F8EE677A67EE807A17EE900A09F0F0FA07
:10214000204B002209F08EF909F0F2FD6023227D78
:1021500001930023CDE90533039304930793531EA2
:10216000032BA6682061B0FBF6F6029622D86FF02A
:10217000030505EB820521462846FFF7ABFF3B6AC6
:1021800030EA03030BD00E482A4601A901F07AF980
:1021900050B10D48FEF7CEFF9FED0C0AC6E707F1E0
:1021A0003403AA1043F82260637D054829461BB119
:1021B00001F00CFA09B0F0BD01F0E8F9FAE700BF50
:1021C000C80700200000E03F46DA000800000000D9
:1021D000C3689BB190ED047A07EE903AB8EE477A67
:1021E000F8EE677A87EE270AF7EE007AB4EE670A10
:1021F000F1EE10FAC8BFB0EE670A70479FED010A12
:10220000704700BF000000002DE9F0412DED028B6A
:10221000474C0268226086B000230E4600930546B4
:10222000FFF7D6FF116A41F211131942B0EE408A4E
:1022300008D1116A40F24443194202BF136823F0E7
:102240000103136001A8694600F0DEFF2868394BDE
:102250000022D1B2013253F831708742F9D110B95E
:102260003548FEF767FF03EBC1031B79002B3CD118
:1022700000F0AAFFDDF810C000900099012301FAD8
:1022800003F0AB602D4BB0FBF3F0B1FBF3F1BCF10D
:10229000000F30D14A1E771E6260E7603B464FF068
:1022A00000084FF6FE7EB3F5803F26D2B2F5803FA0
:1022B00023D2B8F1000F01D06260E36000231C4814
:1022C0002361A36001F098F850BBEE60B0EE480ABD
:1022D0002846FFF717FF2268136843F001031360D5
:1022E00006B0BDEC028BBDE8F08100F07DFFDDF8AB
:1022F00014C00090C1E7421ECDE7AB685B00AB6045
:10230000BCF1000F0ED101FB03F2B7FBF3F37345F1
:1023100002F1FF3209D8B2F5803F06D36260E36074
:1023200007489EE700FB03F2EFE74FF00108BAE72A
:10233000C807002014E100085DDA000840420F00E1
:1023400046DA000830B50D4604464E4989B02846A5
:10235000FFF752F84B4920602846FFF76DF8C0F3AD
:102360008433494A23752368C0F3C04093426075A3
:102370004FF000021AD10092444A516C41F0010121
:102380005164526C02F001020092009A404A93425A
:102390004CD1002305933D4B5A6C42F480325A6471
:1023A0005B6C03F480330593059B16E0B3F1804F1B
:1023B00025D038498B422ED037498B4246D03749F9
:1023C0008B42E3D1314B04921A6C42F008021A643A
:1023D0001B6C03F008030493049B2A492846FEF76C
:1023E000C7FF0023C4E9033344F6206101232046DC
:1023F000A580A36009B0BDE83040FFF705BF01929A
:10240000224A116C41F001011164126C02F00102C8
:102410000192019ABAE702921C4A116C41F0020142
:102420001164126C02F002020292029A1C4A934258
:1024300017D100230693154B5A6C42F400325A64AC
:102440005B6C03F400330693069BC6E703920F4AC6
:10245000116C41F004011164126C02F00402039249
:10246000039A104A9342B8D100230793074B5A6C42
:1024700042F480225A645B6C03F480230793079B29
:10248000ABE700BF4CDC0008000001400038024010
:10249000004001400004004000080040000C0040E3
:1024A0000044014000480140DFED047A20EE270A95
:1024B000FDEEC07A17EE901AFFF7A6BE002474490D
:1024C0004368094A9B0182B0D3581A68120706D59F
:1024D000002201921A6801925A680192019A1868C2
:1024E000C0F3401002B07047301B00204368034A1D
:1024F0009B01D3581868C0F3C0107047301B0020F0
:1025000003464068134A810110B41C688C5002EBEA
:1025100080109A684260DA6882601A69C2605A69FB
:1025200002611A6A82610022C284C2618284C28509
:102530008285B3F91A20013205D108235DF8044BD6
:10254000436101F05AB9B3F9183001330CBF0423C9
:102550000C23F3E7301B00208160FFF7D1BF0000A0
:10256000094B98420BD0A3F54C43984209D003F590
:102570005043984214BF4FF0FF30022070470020B4
:1025800070470120704700BF00100140F0B50E46B3
:1025900085B04149044630461546FEF72DFF3F49B8
:1025A00007462846FEF728FF01463846FEF702FF99
:1025B000022E20600AD0032D08D037490220FEF7F2
:1025C0001BFFB84244D13648FEF7B4FD0127354B16
:1025D000206898424FF000033CD10193324B5A6C73
:1025E00042F010025A645B6C03F010030193019BEC
:1025F000FFF7B6FF284960603046FEF7B9FE28466F
:102600002649FEF7B5FE701C03D001213046FFF7C6
:102610001DFD691C03D001212846FFF717FD00238B
:102620004FF41652C4E90223C4E90433236226831B
:1026300065832046FFF764FF5FB31C4B1C480122F3
:102640001A6021464C2205B0BDE8F0400AF038BEC1
:102650000027BCE7174A90420FD002F55042904243
:10266000C6D10393104B5A6C42F020025A645B6C43
:1026700003F020030393039BBAE702930A4B1A6CFF
:1026800042F400321A641B6C03F400330293029B81
:10269000AEE705B0F0BD00BF20DE0008D8DD0008C1
:1026A00072DA0008001001400038024004080020DF
:1026B000E41A002000440040F7B5FFF751FF041E64
:1026C00026DB144F57F8240010B3134DA601AB5965
:1026D0001A68120606D5DB68190603D50F4B0121CF
:1026E0001B689847AB591A68920608D5DB689806AC
:1026F00005D50A4B57F824001B6800219847AB59B1
:102700001A68110704D55A69D20744BF5B68019360
:1027100003B0F0BD0C080020301B0020080800208A
:102720000148FFF7C9BF00BF001401400148FFF78F
:10273000C3BF00BF004400400148FFF7BDBF00BF5A
:1027400000100140002808DB0123420900F01F00AF
:1027500003FA00F0014B43F82200704700E100E06B
:1027600000280DDB4309012200F01F0002FA00F0EF
:102770002033044A42F82300BFF34F8FBFF36F8F1B
:10278000704700BF00E100E0034B19604168034B54
:1027900043F82120704700BF080800200C080020E3
:1027A000D0E9000330B4204CA0421BD004F5806473
:1027B000A0421DD0A4F55044A04216D000242046CB
:1027C0001A4D9B01EB58CAB1DA68A1B942F0200258
:1027D000DA60174B00F110029B6843F8224030BCCE
:1027E000FFF7B0BF134C2520EAE7134C2620E7E79C
:1027F000124C4720E4E742F08002E9E7DA6849B981
:1028000022F02002DA60DB6813F0800F09D130BCBF
:10281000FFF7A6BF22F08002DA60DB6813F0200F1A
:10282000F4E730BC704700BF00100140301B0020AF
:1028300000ED00E0392700082D27000821270008B7
:1028400038B5456804462046FFF73AFE0028FAD01E
:10285000AD01034B5B595868C0F3080038BD00BF99
:10286000301B002070B5466805460C462846FFF729
:102870003DFE0028FAD0034BB601C4F308049B596F
:102880005C6070BD301B0020DFF830D0002103E019
:102890000B4B5B58435004310A480B4B42189A4289
:1028A000F6D30A4A02E0002342F8043B084B9A425E
:1028B000F9D300F0E5FFFDF7B7FC70470080012079
:1028C00034E4000898010020B8060020B806002073
:1028D000381C0020FEE7704708B50B4B1A6842F41D
:1028E00000721A601A6842F480621A601A6842F430
:1028F00080721A60032000F009FA0F20FEF7CAFA6E
:10290000FFF7E9FF002008BD003C024038B504464F
:10291000FEF7C6FA631C1CBF054B1B78054618BFA3
:10292000E418FEF7BDFA431BA342FAD338BD00BF3B
:10293000A40200207047000010B50446002800F0F3
:102940009980036C23B9436480F83C30FFF7F2FFB1
:10295000236CDB0600F18C80236C23F4885323F076
:10296000020343F002032364434B5A6822F44032CB
:102970005A605A6861680A435A60236821695A6834
:1029800022F480725A605A6842EA01225A605A68F8
:10299000A16822F040725A605A680A435A609A68E5
:1029A000E16822F400629A609A680A439A603349A7
:1029B000A26A8A4250D0996821F070619960996842
:1029C0000A439A609A68E16A22F040529A609A68D3
:1029D0000A439A609A68A16922F002029A609A6892
:1029E00042EA41029A60226A002A3DD05A68616A2E
:1029F00042F400625A605A6822F460425A605A688F
:102A0000013942EA41325A60DA6AE16922F470021D
:102A1000DA62DA6A013942EA0152DA629A68216BB3
:102A200022F400729A609A6842EA41229A609A6897
:102A3000616922F480629A609A68002042EA8122E9
:102A40009A606064236C23F0030343F00103236462
:102A5000002384F83C3010BD9A6822F070629A60BE
:102A60009A6822F04052B4E75A6822F40062CAE73A
:102A70000120EDE70120EEE7002301400100000FF7
:102A800082B00023019390F83C30012B4ED00123FB
:102A900080F83C3003689A68D10705D59A68D20758
:102AA00014D4002002B070479A68214942F0010214
:102AB0009A60204A1268B2FBF1F202EB42020192E4
:102AC000019A002AEAD0019A013AF8E7026C22F44E
:102AD000E06222F0010242F4807202645A685105F9
:102AE00041BF026C22F4405242F480520264026CF4
:102AF00012F480521CBF426C22F006024264002293
:102B000080F83C206FF022021A600B4A5268D2060D
:102B100008D1986810F04050C3D19A6842F08042C2
:102B20009A60BFE7054A9342BBD1F2E70220B9E7BA
:102B300040420F00A8020020002301400020014075
:102B400003689A6870B5560504460D460BD59B6818
:102B5000D80508D5236C43F020032364002384F8B0
:102B60003C30012070BDFEF79BF9064623681A68C9
:102B700092070CD56FF012021A60226C42F40072B8
:102B800022649A6812F0405F13D00020EAE7691CC3
:102B9000EDD045B9236C43F004032364002384F88B
:102BA0003C300320DEE7FEF77BF9801BA842DDD92D
:102BB000F0E7A269002AE8D1DA6A12F4700F02D0B5
:102BC0009B685B05E1D4236C23F480732364206C41
:102BD00010F48050D9D1236C43F001032364C1E782
:102BE0000368D86C70470000F7B50023019390F894
:102BF0003C30012B66D0012380F83C300D6803681F
:102C00008E68092DACB231D904EB4402DF681E3A5C
:102C10004FF0070C0CFA02FC27EA0C07DF60DF68B4
:102C200006FA02F23A43DA604968062901EB8102AA
:102C30002CD8596B053A1F26964021EA06015963A4
:102C4000596B04FA02F20A435A632C4A934207D1A1
:102C5000122D39D1D2F8043343F48003C2F804337F
:102C6000002380F83C30184603B0F0BD1F6905EB27
:102C700045024FF0070C0CFA02FC27EA0C071F6113
:102C80001F6906FA02F23A431A61CDE70C294FF0A8
:102C90001F010BD81E6B233A914026EA01011963EC
:102CA000196B04FA02F20A431A63CEE7DE6A413A6C
:102CB000914026EA0101D962D96A04FA02F20A4374
:102CC000DA62C2E70220CFE7A5F11003012BC7D8D3
:102CD0000B4A5368102D43F400035360C0D1094BD5
:102CE000094A1B68B3FBF2F20A2353430193019B89
:102CF000002BB5D0019B013BF8E700BF002001404D
:102D000000230140A802002040420F000749CA6882
:102D100022F4E0620302120403F4E063120C134392
:102D200043F0BF6343F40033CB60704700ED00E035
:102D30002DE9F341044618B9012002B0BDE8F08145
:102D40000368DD0710D4236898075BD423681A074B
:102D500000F19D8023685B0700F1BB80A269002A17
:102D600040F01C810020E8E7A54B9A6802F00C02B5
:102D7000042A07D09A6802F00C02082A0AD15A687D
:102D8000510207D59E4B1B689A03DCD56368002B64
:102D9000D9D1D1E76268B2F5803F11D11A6842F407
:102DA00080321A60FEF77CF8954E054633689B0327
:102DB000C9D4FEF775F8401B6428F7D90320BCE797
:102DC0008F4DB2F5A02F2B6807D143F480232B60E1
:102DD0002B6843F480332B60E4E723F480332B60CB
:102DE0002B6823F480232B60002ADBD1FEF758F8F0
:102DF00006462B689F03A6D5FEF752F8801B642871
:102E0000F7D9DBE77E4B9A6812F00C0F07D09A686F
:102E100002F00C02082A11D15B685E020ED4784BD6
:102E20001A68950702D5E268012A85D11A682169D6
:102E300022F0F80242EAC1021A6087E7E268714BA9
:102E4000B2B101221A60FEF72BF86D4D06462B68D1
:102E5000980707D52B68226923F0F80343EAC203D9
:102E60002B6073E7FEF71CF8801B0228EFD9A5E75B
:102E70001A60FEF715F8624E0546336899077FF52C
:102E800065AFFEF70DF8401B0228F6D996E7626998
:102E90005D4B7AB101221A60FEF702F8584E0546E2
:102EA000736F9F073FF556AFFDF7FAFF401B0228EF
:102EB000F6D983E71A60FDF7F3FF514E0546736FAD
:102EC00098077FF547AFFDF7EBFF401B0228F6D9C7
:102ED00074E74B4B1A6C12F0805228D101921A6C95
:102EE00042F080521A641B6C03F080530193019BE3
:102EF0000127464D2B68D9051BD5A368404D012BF2
:102F000027D12B6F43F001032B67FDF7C9FF3C4E20
:102F1000054641F28838336F9B0739D5002F3FF4BF
:102F20001DAF374A136C23F08053136416E7002754
:102F3000DFE72B6843F480732B60FDF7B1FF064693
:102F40002B68DA05D9D4FDF7ABFF801B0228F7D92F
:102F500034E7052B04D12B6F43F004032B67D0E734
:102F60002A6F22F001022A672A6F22F004022A67E0
:102F7000002BCAD1FDF794FF41F2883806462B6F2B
:102F80009807CBD5FDF78CFF801B4045F7D915E797
:102F9000FDF786FF401B4045BDD90FE7184DAB68D4
:102FA00003F00C03082B3FF4C7AE194E0023022A8E
:102FB000336035D1FDF774FF07462B68990129D49A
:102FC000D4E907321343626A43EA8213E26A43EAAE
:102FD0000263A26A5208013A43EA02436B6001238A
:102FE0003360FDF75DFF064D04462B689A013FF5FF
:102FF000B9AEFDF755FF001B0228F6D9DEE600BF8B
:103000000038024000004742800E474200700040F6
:1030100060004742FDF744FFC01B0228CDD9CDE632
:10302000FDF73EFF04462B689B017FF59BAEFDF745
:1030300037FF001B0228F6D9C0E600BF134908B5C8
:103040008B6803F00C03042B1CD0082B1CD14A689E
:103050004B68496813F4800314BF0D480D48C1F351
:10306000881118BF002302F03F02A1FB000108F005
:10307000CFFE064B5B68C3F3014301335B00B0FB3B
:10308000F3F008BD0248FCE70248FAE700380240C6
:1030900000127A000024F4002DE9F0410D460446A8
:1030A00010B90120BDE8F081434B1A6802F00F020D
:1030B0008A4227D3226897072CD4D00740D43E4BAE
:1030C0001A6802F00F02AA4265D8226851076BD431
:1030D000130707D5394A2169936823F4604343EA0B
:1030E000C1039360FFF7AAFF344B354A9B68C3F3D3
:1030F0000313D35CD840334B18600F20FDF7CAFE92
:103100000020CFE7CAB21A701B6803F00F038B428E
:10311000C7D1CFE7294B12F0040F1EBF996841F4C5
:10312000E0519960160742BF996841F46041996087
:103130002249A0688B6823F0F00303438B60BCE74F
:1031400062681E4B012A1CD11B6813F4003FA8D0F3
:103150001A4EB36823F003031343B360FDF7A0FED8
:1031600041F288380746B368626803F00C03B3EB9A
:10317000820FA4D0FDF794FEC01B4045F3D9032075
:1031800090E7911E01291B6802D813F0007FDEE74B
:1031900013F0020FDBE7EAB21A701B6803F00F03AB
:1031A000AB427FF47EAF90E70449E0688B6823F47C
:1031B000E05303438B608BE7003C02400038024041
:1031C0005CE10008A8020020044B054A9B68C3F399
:1031D0008223D35C034A1068D8407047003802400D
:1031E0006CE10008A8020020044B054A9B68C3F369
:1031F0004233D35C034A1068D8407047003802401D
:103200006CE10008A80200200F2303600B4B9A68B2
:1032100002F0030242609A6802F0F00282609A684B
:1032200002F4E052C2609B68DB0803F4E0530361E0
:10323000034B1B6803F00F030B607047003802401C
:10324000003C0240036A23F001030362036A70B585
:10325000446882690D6822F073022A438D6823F066
:1032600002032B430A4DA8420BD1CD6823F008037B
:103270002B43D1E9055624F44074354323F004036D
:103280002C43446082614A684263036270BD00BFA0
:1032900000000140036A23F480730362036A70B57F
:1032A0004468C2690D6822F073022A438D6823F4D2
:1032B000007343EA05230B4DA8420DD1CD6823F4DA
:1032C000006343EA0523D1E9055624F4405435430D
:1032D00023F4806344EA05144460C2614A68C2630F
:1032E000036270BD00000140036A23F4805303624F
:1032F000036A30B54468C2690D6822F4E64242EAC6
:1033000005228D6823F4005343EA0533064DA84295
:1033100002BF4D6924F4804444EA85144460C261CC
:103320004A680264036230BD000001407047704784
:10333000224A036890420ED0B0F1804F0BD0A2F524
:103340007C42904207D002F58062904203D002F5A1
:103350008062904215D14A6823F070031343174AE4
:10336000904219D0B0F1804F16D0A2F57C42904225
:1033700012D002F5806290420ED002F58062904237
:103380000AD00F4A904207D002F58062904203D0E3
:1033900002F58062904203D1CA6823F4407313435C
:1033A00003608B68C3620B688362044B984204BF5E
:1033B0000B69036301234361704700BF00000140B4
:1033C0000040014010B50446A0B190F8393003F038
:1033D000FF021BB980F83820FFF7A8FF02232068FE
:1033E00084F83930211DFFF7A3FF012384F8393019
:1033F000002010BD0120FCE710B50446A0B190F8F4
:10340000393003F0FF021BB980F83820FFF78FFF37
:103410000223206884F83930211DFFF789FF01233A
:1034200084F83930002010BD0120FCE7036A23F046
:1034300010030362036A70B5446882690D6822F460
:10344000E64242EA05228D6823F0200343EA051391
:103450000B4DA8420DD1CD6823F0800343EA05133C
:10346000D1E9055624F44064354323F0400344EA8F
:103470008504446082614A688263036270BD00BF54
:103480000000014038B590F83830012B04464FF069
:10349000020010D00123082A84F8383084F839005B
:1034A0003FD009D8DAB1042A2AD00123002084F8B9
:1034B000393084F8380038BD0C2AF6D12068FFF77F
:1034C00013FF23680969DA6942F40062DA61DA6994
:1034D00022F48062DA61DA6942EA012230E020688F
:1034E000FFF7B0FE236809699A6942F008029A6101
:1034F0009A6922F004029A619A690A439A61D4E7B0
:103500002068FFF793FF236809699A6942F4006213
:103510009A619A6922F480629A619A6942EA012268
:10352000ECE72068FFF7B6FE23680969DA6942F024
:103530000802DA61DA6922F00402DA61DA690A4320
:10354000DA61B2E7036A10B501248C4023EA040370
:103550000362036A02FA01F10B43036210BD00002B
:1035600010B5044601220068FFF7ECFF2368064A05
:10357000934202BF5A6C42F400425A641A6842F005
:1035800001021A60002010BD00000140FFF7E8BFF3
:10359000036A10B504248C4023EA04030362036A1F
:1035A00002FA01F10B43036210BD10B50446042278
:1035B0000068FFF7EDFF23685A6C42F400425A643A
:1035C0001A6842F001021A60002010BDFFF7EDBF3B
:1035D0002DE9F8430368C1681A69044622F4405291
:1035E0000A431A612569A268D968C0692A436569D6
:1035F00021F416412A4321F00C0102430A43DA6008
:103600005A69A16922F440720A43B0F5004F5A6129
:10361000774A79D1934203D002F58062934243D135
:10362000FFF7E2FD636819254FF0640868435B000B
:10363000B0FBF3F3B3FBF8F31F01FFF7D5FD6368AD
:1036400068435B00B0FBF3F6FFF7CEFD63686843A9
:103650005B00B0FBF3F3B3FBF8F308FB1363DB0091
:103660003233B3FBF8F35B0003F4F876FFF7BCFDED
:10367000626868435200B0FBF2F9FFF7B5FD63687A
:10368000226868435B00B0FBF3F3B3FBF8F308FB7D
:103690001393DB003233B3FBF8F303F007033B442F
:1036A00033449360BDE8F883FFF78EFD6368192506
:1036B0004FF0640868435B00B0FBF3F3B3FBF8F32F
:1036C0001F01FFF781FD636868435B00B0FBF3F601
:1036D000FFF77AFD636868435B00B0FBF3F3B3FB6D
:1036E000F8F308FB1363DB003233B3FBF8F35B0042
:1036F00003F4F876FFF768FD626868435200B0FB98
:10370000F2F9FFF761FDBAE7934202D0394A9342DA
:103710003FD1FFF769FD636819254FF064086843DE
:103720009B00B0FBF3F3B3FBF8F31E01FFF75CFD66
:10373000636868439B00B0FBF3F7FFF755FD6368D0
:1037400068439B00B0FBF3F3B3FBF8F308FB137380
:103750001B013233B3FBF8F303F0F007FFF744FD2E
:10376000626868439200B0FBF2F9FFF73DFD6368C1
:10377000226868439B00B0FBF3F3B3FBF8F308FB4C
:1037800013931B013233B3FBF8F303F00F033B43F6
:1037900086E7FFF719FD636819254FF06408684351
:1037A0009B00B0FBF3F3B3FBF8F31E01FFF70CFD36
:1037B000636868439B00B0FBF3F7FFF705FD6368A0
:1037C00068439B00B0FBF3F3B3FBF8F308FB137300
:1037D0001B013233B3FBF8F303F0F007FFF7F4FCFF
:1037E000626868439200B0FBF2F9FFF7EDFCBEE7B8
:1037F0000010014000140140704710B5044640B36A
:1038000090F8393003F0FF021BB980F83820FFF739
:10381000F3FF2268242384F83930D36823F400535B
:10382000D3602046FFF7D4FE23681A6922F4904241
:103830001A615A6922F02A025A61DA6842F4005287
:10384000DA6000202023E06384F8393084F83A30CD
:1038500010BD0120FCE77FB502210F23CDE9013126
:103860004FF48052002301A8CDE903320593FFF7FE
:1038700013FCB0FA80F0400907B05DF804FB0000CB
:103880000F49D1F8883043F47003C1F888300D4BEC
:103890001A68002042F001021A6098601A6822F04B
:1038A000847222F480321A60074A5A601A6822F43D
:1038B00080221A60D8604FF000638B60704700BFB1
:1038C00000ED00E0003802401030002410B58EB04A
:1038D0001D4B002400941A6C42F080521A641B6C39
:1038E0001A4A03F080530093009B0194136823F459
:1038F000404343F400431360136803F440430193CF
:10390000A042019B4FF0010302930CBF4FF48033A0
:103910004FF4A023039302224FF48003CDE9082340
:1039200008214FF4A8730420CDE90A130723CDE939
:103930000C0302A8FFF7FCF918B9FFF78CFF0EB0D3
:1039400010BD2046FBE700BF003802400070004079
:1039500010B58EB000241A4B00941A6C42F08052BD
:103960001A641B6C174A03F080530093009B019468
:10397000136823F4404343F4004313601368039433
:1039800003F440430193019B032302930123059316
:10399000102306930A934FF4A8710423CDE90B1367
:1039A0000222072302A8CDE908240D93FFF7C0F9EE
:1039B00018B9FFF750FF0EB010BD2046FBE700BF5F
:1039C000003802400070004008B50120FFF77EFF7C
:1039D00028B9FFF7BDFF10B90148FDF7ABFB08BDE3
:1039E000A7DA0008174A1849936803F00C03042B60
:1039F00010B50DD0082B0DD0144B0B60114B144A91
:103A00009B68C3F30313D25C0B68D3400B6010BDFB
:103A1000104BF2E75468506852686302C2F3881290
:103A20004CBF0C4B094B00F03F00B3FBF0F353438A
:103A3000044A5268C2F3014201325200B3FBF2F36E
:103A4000DBE700BF00380240A80200200024F40099
:103A50005CE1000800127A00074B084A13601A69FB
:103A6000910707D5DA68920704D56FF002021A6150
:103A7000FEF72ABA704700BF000C0040F41B00207C
:103A80000048704774E1000830B589B001A903A867
:103A9000FFF7BAFBFFF798FB002302931E4B019040
:103AA0001A6C1E4C42F008021A641A6C02F00802EA
:103AB0000292029A1A6A42F008021A621A6A22F004
:103AC00008021A62069AA3F50B3323604FF0FF3306
:103AD000E360134BF2B9B0FBF3F0013800256060EE
:103AE0000E482561A5606561FFF76CFC0D4B0E4A21
:103AF0009B68C3F808210D4B4FF480225A60074899
:103B00002946FFF72DFD2268D36823F00203D36016
:103B100009B030BD4000DEE700380240F41B002051
:103B200040420F0000ED00E0593A000800E100E0DB
:103B300004480268D36823F00203D3600021FFF732
:103B40000FBD00BFF41B0020014B586A704700BF37
:103B5000000C0040054B1B686FF0020258631A61AD
:103B6000DA6842F00202DA60704700BFF41B0020FE
:103B7000064B1B686FF002021A615A6942F002029A
:103B80005A61DA6842F00202DA607047F41B0020E2
:103B9000034B1A68D36823F00203D360704700BF59
:103BA000F41B0020024B1B686FF002021A61704781
:103BB000F41B002010B584B001902949019A1346E6
:103BC0005B0013449B000B4408331B78002B2DD162
:103BD0005020FDF769FE03461C462149019A134611
:103BE0005B0013449B000B44B3F900301946204698
:103BF000FCF788FB1A49019A13465B0013449B00AB
:103C00000B4404331C601649019A13465B001344AD
:103C10009B000B44083303221A70019A13465B0081
:103C200013449B000E4A1344039315E00C49019A78
:103C300013465B0013449B000B4408331B78032B93
:103C400008D1019A13465B0013449B00044A1344B5
:103C5000039301E000230393039B184604B010BDB7
:103C60003003002084B003900B4601928DF80B3096
:103C700000BF04B0704700B589B0039002911346AD
:103C80008DF80730039B0593059B002B0ED0059BF9
:103C90005B681846FCF70AFB10EE103A184607F06E
:103CA0003FFD02460B46CDE9062305E04FF000023A
:103CB0004FF00003CDE906230299DDE90623C1E9AF
:103CC000002300BF09B05DF804FB82B0019000BF83
:103CD00002B0704782B0019000BF02B0704700B5DB
:103CE00085B00190019B0393039B002B0ED0039B97
:103CF0005B68002B04D01A6804321268184690479B
:103D0000039B00225A60039B00221A7200BF05B079
:103D10005DF804FB00B583B001900B46ADF80230AE
:103D2000019BBDF9022011461846FCF767FC019B78
:103D3000184603B05DF804FB00B583B00190019B09
:103D40001846FEF7D9F9019B1846FCF79DFC019B2C
:103D5000184603B05DF804FB10B588B005908DEDF2
:103D6000020B8DED001B4649059A13465B00134478
:103D70009B000B4408331B78002B67D11C20FDF7F8
:103D800093FD03461C463E49059A13465B001344C7
:103D90009B000B44B3F9003019462046FFF7BAFFE9
:103DA0003749059A13465B0013449B000B440433C8
:103DB0001C603349059A13465B0013449B000B4477
:103DC00004331B681C46DDE902234FF000002D4937
:103DD00007F028FE02460B461046194607F0C8FFBA
:103DE000034600EE103A2046FCF719FC2449059AD8
:103DF00013465B0013449B000B4404331B681C46B2
:103E00004FF00002204BDDE9000107F00BFE0246F7
:103E10000B461046194607F0ABFF034600EE103A7A
:103E20002046FCF715FC1649059A13465B0013441F
:103E30009B000B44083304221A70059A13465B005A
:103E400013449B000E4A1344079315E00C49059A4E
:103E500013465B0013449B000B4408331B78042B70
:103E600008D1059A13465B0013449B00044A13448F
:103E7000079301E000230793079B184608B010BD85
:103E8000300300200000F03F0000594082B0019054
:103E900000BF02B07047000010B586B003908DEDF2
:103EA000000B039B0593059B002B19D0059B1B7AE8
:103EB000042B15D1059B5B681C464FF000020A4B92
:103EC000DDE9000107F0AEFD02460B46104619463B
:103ED00007F04EFF034600EE103A2046FCF7B8FB11
:103EE00000BF06B010BD00BF0000594010B584B03F
:103EF0000190019B0393039B002B14D0039B1B7A1F
:103F0000042B10D1039B5C68002C06D02046FFF7E1
:103F100013FF1C212046FDF7DBFC039B00221A72D5
:103F2000039B00225A6000BF04B010BD82B0019014
:103F300000BF02B0704784B00190009100238DF85B
:103F40000F309DF90F30184604B0704700B585B0AA
:103F50000190009100238DF80B30019B002B02D1C2
:103F60004FF0FF3358E0009B002B02D14FF0FF339E
:103F700052E02B4BD3E900014FF000024FF04043D9
:103F800007F08EFE0346002B06D0009BD3E90023EA
:103F90002349C1E9002305E0214BD3E9002300991F
:103FA000C1E900231E4BD3E90023019B5B681B681A
:103FB0001C4A1360019B5B685B681B4A1360019B92
:103FC0005B689B68194A1360019B5B68DB68184A51
:103FD0001360184B00221A6001F08CFB002303933E
:103FE0000023039307E0144A039B144942F823106B
:103FF000039B01330393039B012BF4D900F0EEFFE5
:1040000003468DF80B309DF90B30002B02D10C4B81
:1040100001221A709DF90B30184605B05DF804FBBB
:10402000E8020020680A00206C0A0020700A0020C4
:10403000740A0020780A0020180800205157000850
:10404000650A002000B587B0019000238DF8173075
:104050000023049300238DF80F302E4B1B78DBB226
:10406000002B0CBF01230023DBB28DF80E302A4B4E
:1040700002221A70019B002B0BD1264B1B78DBB25E
:10408000002B06D1254B1B78DBB2002B01D101237D
:1040900000E000238DF80F3017E00A20FEF736FC11
:1040A000049B03F51C5310330493019BB3F1FF3FB2
:1040B00005D0049A019B9A4201D9012300E0002314
:1040C0008DF80F30002000F0CFFF124B1B78DBB2D1
:1040D000002B08D1114B1B78DBB2002B03D19DF8CC
:1040E0000F30002BD9D00C4B03221A709DF80F30E3
:1040F000002B02D09C238DF817309DF80E30002B3A
:1041000001D001F01FFC9DF91730184607B05DF88B
:1041100004FB00BF630A0020650A0020640A002037
:1041200000B587B003468DED000BADF80E300023CF
:104130008DF8173001238DF816304FF000024FF044
:104140000003DDE9000107F0B5FD0346002B02D0B6
:104150004FF0FF3352E0BDF80E30FF2B02D94FF085
:10416000FF334BE0274B1B78DBB2032B04D0254BEE
:104170001B78DBB2012B02D1224B04221A70BDF84E
:104180000E30012B1BD8BDF80E301F4A52F82330D9
:10419000002B14D001F04AFF03468DF815309DF82E
:1041A0001530022B0BD1BDF80E30174A52F82330D0
:1041B000BDF80E201046984703468DF81630BDF81E
:1041C0000E30ADF81230BDF80E3018469DED000BE4
:1041D00000F066FE9DF81630002B08D0BDF81230B6
:1041E000184601F0FDFE03468DF8173004E0BDF8D7
:1041F0001230184601F045FF9DF91730184607B0F8
:104200005DF804FB650A00201808002000B583B0A3
:1042100000238DF80730002000F026FF03468DF8BC
:1042200007309DF90730184603B05DF804FB000025
:1042300000B583B000238DF807300C4B06221A70AE
:1042400000F0AEFF03468DF8073008220021084831
:1042500008F02DFF01F000FB044B00221A709DF9BD
:104260000730184603B05DF804FB00BF650A002064
:1042700018080020024B1B78DBB21846704700BFBD
:10428000640A0020024B1B78DBB21846704700BF5F
:104290007C0A0020F0B599B00190019BDB6F1B6890
:1042A000D3E90023CDE91423019BD3E90623CDE90B
:1042B0001223019B1B6AD3E90023CDE91023019B44
:1042C000D3F884301B680F93019B9B680E930E9B61
:1042D0001B680D930E9B5B680C930E9B9B680B9366
:1042E0000E9BDB680A9301230993019B5B68002204
:1042F0001A70099BDB001A460F990D9808F0E0FF31
:10430000019B9B6F0C9A1A6000F074FBA74BD3E9DA
:104310000001DDE9102307F05BFA02460B46CDE908
:1043200002230023179324E0179BDB000D9A13440C
:10433000D3E90045179BDB000C9A1344D3E9000135
:10434000DDE9022307F044FA02460B4610461946FF
:10435000179BDB000F9AD61802460B4620462946CB
:1043600007F080F802460B46C6E90023179B01338D
:104370001793179A099B9A42D6DB8D4BD3E900011C
:10438000DDE9102307F024FA02460B4610461946D1
:10439000019BDB6F1C68DDE9142307F063F802461C
:1043A0000B46C4E90023019B9B6F0B9A1A6000F037
:1043B00003F900F01FFB0023179316E07B4A179BBD
:1043C0000333DB001344D3E90001DDE9102307F0D8
:1043D000FFF902460B461799C90060316944583904
:1043E000C1E90023179B01331793179B012BE5DDD0
:1043F0000023179338E0179BDB000D9A1344D3E991
:104400000045179BDB000C9A1344D3E90001DDE95A
:10441000022307F0DDF902460B4616461F46179B9E
:10442000DB000B9A1344D3E90001DDE9042307F014
:10443000CFF902460B463046394607F013F80246DC
:104440000B4610461946179BDB000F9AD6180246FA
:104450000B462046294607F005F802460B46C6E9FA
:104460000023179B01331793179A099B9A42C2DBCB
:104470004F4BD3E90201DDE9102307F0A9F9024609
:104480000B4610461946019BDB6F1C68DDE91423BF
:1044900006F0E8FF02460B46C4E90023019B9B6F30
:1044A0000A9A1A6000F088F800F0A4FA0023179323
:1044B00016E03E4A179B0633DB001344D3E90001A4
:1044C000DDE9102307F084F902460B461799C9006D
:1044D000603169445839C1E90023179B01331793B0
:1044E000179B022BE5DD002317934CE0179BDB00A5
:1044F0000D9A1344D3E90045179BDB000C9A134433
:10450000D3E90001DDE9022307F062F902460B4618
:1045100016461F46179BDB000B9A1344D3E9000194
:10452000DDE9042307F054F902460B4630463946CC
:1045300006F098FF02460B4616461F46179BDB0007
:104540000A9A1344D3E90001DDE9062307F040F994
:1045500002460B463046394606F084FF02460B46BB
:1045600010461946179BDB000F9AD61802460B46D9
:104570002046294606F076FF02460B46C6E9002390
:10458000179B01331793179A099B9A42AEDB019B45
:10459000DB6F1968DDE91223C1E90023019B5B6829
:1045A00001221A7000BF19B0F0BD00BF88E10008F9
:1045B000D0E100080000000030B587B0704B93F8E0
:1045C000A031012B10D16E4BD3F87831013318464E
:1045D00007F084F86A4BD3E96023694C07F0F8F8D8
:1045E00002460B46C4E90823654B93F8A031002B23
:1045F0000AD1634BD3F884301B68614AD2F8A41106
:10460000D3E90023C1E900235D4BD3F8A431D3E9FA
:104610000023CDE90023DDE900014FF00002594BF2
:1046200007F048FB0346002B1AD0DDE900014FF0EC
:104630000002554B07F0CCF802460B4610461946CF
:104640004FF00002514B06F00DFF02460B46504959
:10465000C1E90A234FF000024B4BCDE90023B3E040
:10466000DDE900014FF000024A4B07F023FB03464F
:10467000002B0CD046494FF00002474BC1E90A23FA
:104680004FF000024FF00003CDE900239CE0DDE98C
:1046900000014FF00002414B07F00CFB0346002BDA
:1046A00023D0DDE900014FF000023A4B06F0D8FEBE
:1046B00002460B46104619464FF00002384B07F0F1
:1046C00087F802460B46104619464FF00002324B5F
:1046D00006F0C8FE02460B462D49C1E90A234FF0F9
:1046E00000022F4BCDE900236EE0DDE900014FF021
:1046F00000022C4B07F0DEFA0346002B0CD02449B5
:104700004FF00002284BC1E90A234FF000024FF09E
:104710000003CDE9002357E0DDE900014FF000027E
:10472000224B07F0C7FA0346002B41D0DDE9000118
:104730004FF000021B4B06F093FE02460B4610465C
:1047400019460BA3D3E9002307F042F802460B46B3
:104750004FF00000144906F083FE02460B460C4958
:10476000C1E90A2304A3D3E90023CDE900232BE008
:10477000555555555555D53F555555555555D5BF95
:1047800080080020000054400000C83F000039406D
:104790002008002000005E4000004440008061408E
:1047A0000000D03F000064400080464000806B4025
:1047B00089494FF00002894BC1E90A234FF00002FA
:1047C0004FF00003CDE90023854BD3E90601844B6C
:1047D000D3E9042307F026F902460B461046194692
:1047E000DDE9002306F0F4FF02460B4614461D46A1
:1047F0007B4BD3E904234FF000007A4907F012F90C
:1048000002460B4610461946734BD3E90A2306F0BD
:10481000DFFF02460B462046294606F023FE0246ED
:104820000B466D49C1E908236F4B93F8A031012B6A
:104830000CBF01230023DBB28DF817309DF8173031
:10484000002B17D0694BDB681846FFF73EFA674B21
:10485000DB68694607221846FFF70DFA604BD3E97B
:104860000001DDE9002306F0B3FF02460B465A497A
:10487000C1E90023584BD3E90A01574BD3E9002380
:1048800006F0EEFD02460B465349C1E90223544BA4
:10489000D3E90401504BD3E9022306F099FF024605
:1048A0000B4610461946524BD3E9002306F0DAFDB9
:1048B00002460B464849C1E90423474BD3E90401AA
:1048C000474BD3E90A2307F013FA0346002B06D01F
:1048D000434BD3E90A234049C1E9042310E03E4B8E
:1048E000D3E904013E4BD3E90C2307F0E3F9034677
:1048F000002B05D03A4BD3E90C233749C1E90423F7
:104900003A4BDC69344BD3E90801334BD3E9042338
:1049100006F0A8FD02460B4643EC172BB0EE470A03
:10492000F0EE670A2046FFF7B7FA2D4BD3E90201F4
:10493000294BD3E9022306F04BFF02460B462649DA
:10494000C1E90623284B93F8A031012B1ED1264B39
:1049500093F8A031012B19D100238DF81630224B8A
:10496000D3F88831184606F0B9FE19A3D3E900231D
:1049700006F02EFF02460B46CDE902239DED020B09
:104980000120FFF7CDFB03468DF81630164B93F848
:10499000A031012B18D1144B08331846FFF77AFCCD
:1049A000114BD3F878210132C3F878210E4B0E4A0F
:1049B000D2F8A411D3E90823C1E900230A4BD3F8A4
:1049C00088210132C3F8882100BF07B030BD00BF85
:1049D0007B14AE47E17A843F200800200000394074
:1049E000B00200200000F03F800800205C0800209A
:1049F0005008002082B0064BD3F81C310193054BC0
:104A0000D3E906230199C1E9002300BF02B0704732
:104A1000800800202008002008B5854B844A03F553
:104A2000D073D360824B824A03F5D273C2F88430CC
:104A30007F4B7F4A03F5C07393627D4B7C4A03F53D
:104A40008E73C2F880307A4B794A03F58873C2F8C6
:104A50008C30774B764A03F5B473C2F88830744BC8
:104A6000734A03F5B673C2F89030714B704A03F580
:104A70008A73C2F894306E4B6D4A03F58C73C2F89A
:104A800098306B4B6A4A03F59073C2F80831684A54
:104A9000674BC3F8D020664B654A9A60644BDB686D
:104AA00001221A70624B002283F8FC20604B002226
:104AB00083F80C215E4B5E4A03F59473C2F84831CB
:104AC0005B4B5B4A03F59873C2F84C31584B584A1C
:104AD00003F59C73C2F85031554B554A03F5A0734A
:104AE000C2F85431524B534AC3F81021504B524A2A
:104AF000C3F820214E494FF000024FF00003C1E9F6
:104B000064234B4B4A4A03F5A4731361484B4B4A49
:104B10005A61474B464A03F5D473C2F8A43144495D
:104B20004FF00002464BC1E9662341493AA3D3E95D
:104B30000023C1E960233E4B424AC3F858213C4B55
:104B4000414AC3F85C213A4B404AC3F86021384BD4
:104B50003F4AC3F86421364B3E4A5A603D4B3E4AB9
:104B60001A603D4B3D4A1A603B4B3C4A5A603A4BF7
:104B70003A4A9A60384B394ADA602D4A2C4B5B68C6
:104B800002F5BA729A602A4A294B5B6802F5AC7248
:104B90005A60274A264B5B68D2F8A421DA60304B72
:104BA000D3E908232349C1E900232E4B00221A70C0
:104BB0002C4B00221A722B4B01225A601020FEF758
:104BC000F9FF0346274AD360264BDB680022002109
:104BD0001846FFF747F8234B01221A72214B002297
:104BE0001A74204B00221A761E4B01225A619FED47
:104BF0000C1B9FED0D0B0220FFF7AEF80346194A80
:104C0000D361184BDB691846FFF740F9154B0122B9
:104C10001A7600BF08BD00BF7B14AE47E17A843F1F
:104C20000000000000003440000000000088C34085
:104C300080080020500800205808002080E100086B
:104C400000C08240BF3B44FB0E1C0726885F502BF0
:104C500067091BBE380A00204C0A0020E8E1000862
:104C6000B00200205C08002008B51A4B1B78002B0E
:104C700014D1184B01221A70164B5B68012B0DD111
:104C8000144B1B7A002B09D0124BDB681846FFF738
:104C900021F8104BDB681846FFF721F80D4B1B7C01
:104CA000002B14D10B4B01221A740A4B5B69012BA8
:104CB0000DD1084B1B7E002B09D0064BDB69184633
:104CC000FFF714F9034BDB691846FFF72FF900BF14
:104CD00008BD00BF5C08002008B50F4B1B785A1CAC
:104CE000D1B20D4A1170002B09D00C4B01221A6071
:104CF000094B1B78013BDAB2074B1A700BE062B626
:104D000000BFFFF759FC72B600BF034B1B78013B95
:104D1000DAB2014B1A7008BD600A00205C0A00205C
:104D200000B585B0514B0393514B029300238DF88E
:104D30000730504B00221A704F4B00221A7001DFCF
:104D4000FDF7CAFD05F08EFFFEF74CFE4B4B1B68CE
:104D500000221A6000210020FFF7EDF803468DF8CD
:104D600007309DF90730002B02D09DF9073079E01C
:104D7000FFF752FE414B1B685A68404B1B6803F516
:104D8000CC7319461046FFF7E1F803468DF807305B
:104D90009DF90730002B0DD14FF0FF30FFF752F98E
:104DA000FFF768FA0346002B04D0344B1B6801223E
:104DB00083F8A1219DED030A05F0CCFFFFF762FA0D
:104DC0000346002B0CD1FFF755FA0346002B07D101
:104DD0002A4B1B6893F8A131002B01D1012300E07D
:104DE0000023DAB2244B1A7062B600BF30E0FFF73E
:104DF0000DFA03468DF80730FFF744FA0346002BFF
:104E00000AD1FFF737FA0346002B05D11B4B1B686D
:104E100093F8A131002B01D0012300E00023DAB286
:104E2000144B1A70134B1B78DBB2002B0CBF012301
:104E30000023DBB21A46104B1A700E4B1B78DBB204
:104E4000002B05D00E4B1B680D4A23F001031360A5
:104E5000094B1B78DBB2002BC9D1FFF705FFFFF729
:104E6000E7F90023184605B05DF804FB0AD7233C98
:104E70000000A842610A0020620A00207CE10008CC
:104E800010E000E084B0039002910192039B029A2B
:104E90001A60039B0433019A1A6000BF04B0704784
:104EA00070B58AB08DED020B0346ADF80630BDF843
:104EB0000630012B77D14FF00002414BDDE90201B2
:104EC00006F086FC02460B46CDE906239FED381B13
:104ED0009DED060B06F004F953EC102B1046194615
:104EE00006F026FF034605930023099332A3D3E976
:104EF0000023DDE9060106F0FBFE0346002B0ED081
:104F00002DA3D3E90023DDE9060106F08BFD02465F
:104F10000B461046194606F00BFF03460993099A03
:104F200005992848FFF7AEFF274BD3E900014FF062
:104F30000002264B06F0B4FE0346002B2ED1224B76
:104F4000D3E900014FF000024FF0404306F0A8FE05
:104F50000346002B22D11C4BD3E90001DDE90223DB
:104F600006F07EFA02460B4614461D464FF000023C
:104F7000174BDDE9020106F02BFC02460B4601212E
:104F80000E462046294606F095FE0346002B01D129
:104F900000231E46F3B21A460E4B1A700E49DDE985
:104FA0000223C1E9002300BF0AB070BDAFF3008047
:104FB000000000000000F0410000E0FFFFFFEF41B3
:104FC00000408F40900A0020E80200200000F0BF5F
:104FD0000000B03C7C0A0020980A002000B585B093
:104FE000002302930023019300238DF80F301C4906
:104FF0004FF000024FF00003C1E9002319494FF0C0
:1050000000024FF00003C1E9002301AA02AB1146E0
:10501000184605F0C7FB029B019A1146184603F09B
:10502000D5FD03468DF80F309DF90F30002B02D0CF
:105030009DF90F3010E001AA02AB1146184605F0A9
:10504000C3FB029B019A1146184600F0EBFE034693
:105050008DF80F309DF90F30184605B05DF804FB50
:10506000800A0020880A002000B585B003468DF82C
:10507000073000238DF80F3000238DF80E3000200C
:10508000FDF744FC00238DF80D3003F02FFF03469D
:105090008DF80F309DF90F30002B08D09DF90F309F
:1050A00013F1020F03D001238DF80E300DE09DF8AF
:1050B0000D30002B04D19DF90F3013F1020F01D0F8
:1050C000012300E000238DF80D309DF80E30002BF9
:1050D0001FD100F0D3FE03468DF80F309DF90F303D
:1050E000002B08D09DF90F3013F1020F03D00123DC
:1050F0008DF80E300DE09DF80D30002B04D19DF998
:105100000F3013F1020F01D0012300E000238DF8CE
:105110000D309DF80E30002B1FD103F073FE0346B7
:105120008DF80F309DF90F30002B08D09DF90F300E
:1051300013F1020F03D001238DF80E300DE09DF81E
:105140000D30002B04D19DF90F3013F1020F01D067
:10515000012300E000238DF80D309DF80730002B6F
:1051600010D00020FDF7D2FB9DF80E30002B03D1AC
:105170009DF80D30002B01D1012300E000238DF8B4
:105180000E3002E001238DF80E309DF80E30002B1A
:105190003FF478AF9DF90F30184605B05DF804FB79
:1051A00000B583B000238DF80230314B1B78DBB2A1
:1051B000002B02D0002000F055FF00F037FF03461F
:1051C0008DF80330002301930FE00A20FDF79EFBCA
:1051D000019B03F51C53103301930120FFF744FF9B
:1051E00000F024FF03468DF80330019B214A9342CF
:1051F00003D29DF80330002BE7D100F01DFF0346DA
:105200008DF8023003F0AEFF03468DF802301A4BE2
:1052100000221A70194B00221A70194B00221A60D2
:10522000184B00221A60184B00221A60174B0022FC
:105230001A60174B00221A6016494FF000024FF017
:105240004043C1E900230A4B00221A7008220021C2
:10525000114807F02CFF11494FF000024FF00003F6
:10526000C1E900239DF90230184603B05DF804FB44
:105270007C0A002000879303630A0020640A002050
:10528000680A00206C0A0020700A0020740A0020BE
:10529000780A0020E8020020900A0020980A0020E6
:1052A00000B587B0634B1B680593059B002B00F08E
:1052B000BC80614B1B78DBB2002B04D15D4B1B68BB
:1052C000002B00F0B2805D4B1B78DBB2022B40F06C
:1052D000AC805B4B1B78002B40F0A780059BD3E98B
:1052E0000023CDE90223574B1B78002B00F08E8062
:1052F000554B1B78DBB2002B04D0534B1B78DBB231
:10530000022B01D1012300E000238DF807304E4B22
:105310001B78DBB2012B04D04B4B1B78DBB2022B8A
:1053200001D1012300E000238DF806309DF80730FD
:10533000002B33D0454BD3E90023DDE9020106F011
:10534000CDFC0346002B0AD0414BD3E900013F4B73
:10535000D3E9002306F0AEFC0346002B14D13B4BEF
:10536000D3E90023DDE9020106F0C2FC0346002B6D
:1053700014D0374BD3E90001344BD3E9002306F0B6
:105380008FFC0346002B09D0324B1B68002B02D147
:10539000314B01221A702A4B01221A709DF80630F7
:1053A000002B33D0294BD3E90023DDE9020106F0BD
:1053B00081FC0346002B0AD0254BD3E90001234B87
:1053C000D3E9002306F08AFC0346002B14D11F4BBF
:1053D000D3E90023DDE9020106F062FC0346002B5D
:1053E00014D01B4BD3E90001184BD3E9002306F07E
:1053F0007FFC0346002B09D0164B1B68002B02D103
:10540000154B01221A700E4B01221A700C4B1B789F
:10541000002B0CBF01230023DBB21A46094B1A7084
:105420000B49DDE90223C1E9002300BF07B05DF8A5
:1054300004FB00BFA40A0020A80A0020C40A002020
:10544000D30A0020D00A0020C00A0020B00A0020A1
:10545000C80A0020BC0A0020D20A002082B0002323
:105460008DF80730984B1B78DBB2002B19D1974B86
:1054700000221A70964B00221A70964B1B78DBB2F2
:10548000002B30D0904B02221A70924B00221A70DF
:10549000914B1B78DBB2002B25D101238DF807300F
:1054A00021E08C4B00221A70884B1B78DBB2002B5A
:1054B00009D08A4B00221A70834B00221A70834B4A
:1054C00000221A700FE0844B1B78DBB2002B03D153
:1054D00001238DF8073006E07D4B1B788DF80730EF
:1054E0007B4B00221A70784B1B78DBB2042B00F246
:1054F000D18001A252F823F00D5500083F56000854
:1055000027550008F955000881550008714B1B7894
:10551000DBB2002B00F0CB806B4B02221A706D4B7C
:1055200000221A70C3E09DF80730002B00F0C18004
:105530006B4B1B68002B0DDD674B1B78DBB2012B1F
:1055400008D1674B1B681A46664B1A605E4B0322F4
:105550001A70AEE0644B1B68002B0AD05F4B01222F
:105560001A70614B1B685F4A1360574B04221A7014
:105570009FE05A4B00221A70534B00221A7098E099
:10558000584B1B68002B04D0564B1B68013B554AF7
:105590001360544B1B68002B40F08D80534B1B78DD
:1055A000DBB2012B06D14D4B00221A70464B002274
:1055B0001A7080E04E4B1B68002B0AD0474B00222C
:1055C0001A704B4B1B68474A13603F4B01221A70FD
:1055D00071E09DF80730002B07D0434B1B68414A10
:1055E0001360394B04221A7065E03C4B00221A709C
:1055F000354B02221A705EE03A4B1B68002B04D038
:10560000384B1B68013B374A1360364B1B68002B35
:1056100053D1354B1B68002B0AD0304B01221A7036
:10562000314B1B682F4A1360274B04221A7044E049
:105630002A4B00221A70244B00221A703DE0294B9D
:105640001B68002B04D0274B1B68013B254A1360C5
:10565000244B1B68002B32D19DF80730002B15D04E
:10566000214B1B68002B0AD01C4B01221A701E4BC9
:105670001B681C4A1360144B04221A701FE0174B5E
:1056800000221A70104B00221A7018E00E4B0222F2
:105690001A7014E0114B00221A700D4B00221A7080
:1056A0000A4B00221A70084B00221A7008E000BF53
:1056B00006E000BF04E000BF02E000BF00E000BF62
:1056C00000BF02B0704700BFC40A0020C10A00201A
:1056D000D30A0020F4020020C20A0020D20A0020CF
:1056E000BC0A0020D40A0020F0020020C30A0020D7
:1056F000B80A00200E494FF000024FF00003C1E944
:1057000000230C4B00221A700B4B1B78DAB20B4BA8
:105710001A700B4B00221A700A4B00221A700A4BA7
:1057200000221A60094B00221A70002318467047A5
:10573000C80A0020D00A0020C20A0020D10A002096
:10574000D20A0020D30A0020D40A0020C40A002074
:1057500000B585B00346ADF80630BDF80630012B24
:1057600041D1334B1B78DAB2324B1B789A4214BFCB
:1057700001230023DBB28DF80F302D4B1B78DAB2FA
:105780002C4B1A709DF80F30002B0BD02A4B0022A7
:105790001A702A4B00221A70294B00221A60294BDA
:1057A00000221A70224B1B78DBB2012B1BD1254B38
:1057B0001B78DBB2002B04D1234B1B78DBB2002B10
:1057C00008D1204B1B78DBB2012B0CD11C4B1B6882
:1057D000012B08D11A4B00221A601B4B00221A70B1
:1057E000184B02221A70124B1B78DBB2012B08D126
:1057F000164B1B889BB2BDF806209A4201D1FFF7D9
:105800004FFDBDF80630012B05D1FFF727FE104BE9
:1058100000221A7006E00E4B1B78002B02D00D4BB5
:105820001B7801E0044B1B78184605B05DF804FBBB
:10583000C20A0020D10A0020D20A0020D30A002088
:10584000D40A0020C40A0020F4020020A00A00208C
:10585000D90A0020D80A002025494FF000024FF055
:105860000003C1E90023234B00221A70224B0022BF
:105870001A70224B00221A70214B00221A80214BF1
:1058800000221A70204B00221A70204B00221A604E
:105890001F4B00221A701F4B00221A701E4B002251
:1058A0001A601E4B00221A701D494FF000024FF083
:1058B0000003C1E900231B4B4FF47A721A601A4BA4
:1058C00000221A60194B00221A60194B00221A702C
:1058D000184B01221A70184B00221A70174B002225
:1058E0001A70174B00221A7000231846704700BF29
:1058F000C80A0020D00A0020C40A0020D10A0020D3
:10590000A00A0020D20A0020D30A0020D40A0020D6
:10591000D80A0020D90A0020A40A0020A80A0020E2
:10592000B00A0020F0020020B80A0020BC0A0020C3
:10593000C00A0020F4020020C10A0020C20A002090
:10594000C30A0020164B1B78DBB2002B25D1154B68
:105950001B78DBB2002B0BD0134B1B78DBB2002B78
:1059600006D1124B01221A70114B01221A7014E059
:105970000D4B1B78DBB2002B0BD00A4B1B78DBB234
:10598000002B06D1094B00221A70094B01221A7014
:1059900003E0074B00221A70FFE700BF704700BF0B
:1059A000C20A0020F4020020C10A0020D80A002008
:1059B000D90A002000B587B00390029101920093AC
:1059C00000238DF8173003F0C7FB0490039B1B687E
:1059D000184603F0E1FD0021009803F04AFB02465F
:1059E000029B1A6003F036FB0246019B1A60029B81
:1059F0001B68002B10D0029B1B681946049804F00A
:105A0000E3F80246039B1A60039B1B68002B06D138
:105A1000F6238DF8173002E0F8238DF817309DF942
:105A20001730184607B05DF804FB00B585B0039049
:105A300002910192039B002B02D0039803F0ACFD6E
:105A4000019B00221A600023184605B05DF804FB94
:105A500084B0039002910192019B02221A604FF0E0
:105A6000FF33184604B0704784B003460A468DF8E9
:105A7000073013468DF8063005238DF80F309DF85A
:105A80000730F02B03D900238DF80F302EE09DF85E
:105A90000730E32B07D99DF80730F02B03D80123FB
:105AA0008DF80F3022E09DF80730D22B03D99DF8F6
:105AB0000730E22B0BD99DF80730C02B0BD19DF896
:105AC0000630002B07D09DF80630022B03D80223A6
:105AD0008DF80F300AE09DF80730C72B06D99DF8E6
